{
	"contracts/04day/Whislist.sol": {
		"Wishlist": {
			"abi": [
				{
					"inputs": [],
					"stateMutability": "nonpayable",
					"type": "constructor"
				},
				{
					"inputs": [
						{
							"internalType": "string",
							"name": "_name",
							"type": "string"
						}
					],
					"name": "addWish",
					"outputs": [],
					"stateMutability": "nonpayable",
					"type": "function"
				},
				{
					"inputs": [
						{
							"internalType": "uint256",
							"name": "_index",
							"type": "uint256"
						}
					],
					"name": "fulfillWish",
					"outputs": [],
					"stateMutability": "nonpayable",
					"type": "function"
				},
				{
					"inputs": [
						{
							"internalType": "uint256",
							"name": "_index",
							"type": "uint256"
						}
					],
					"name": "getWish",
					"outputs": [
						{
							"components": [
								{
									"internalType": "string",
									"name": "name",
									"type": "string"
								},
								{
									"internalType": "bool",
									"name": "isFullfilled",
									"type": "bool"
								}
							],
							"internalType": "struct Wishlist.WishItem",
							"name": "",
							"type": "tuple"
						}
					],
					"stateMutability": "view",
					"type": "function"
				},
				{
					"inputs": [],
					"name": "getWishes",
					"outputs": [
						{
							"components": [
								{
									"internalType": "string",
									"name": "name",
									"type": "string"
								},
								{
									"internalType": "bool",
									"name": "isFullfilled",
									"type": "bool"
								}
							],
							"internalType": "struct Wishlist.WishItem[]",
							"name": "",
							"type": "tuple[]"
						}
					],
					"stateMutability": "view",
					"type": "function"
				},
				{
					"inputs": [],
					"name": "owner",
					"outputs": [
						{
							"internalType": "address",
							"name": "",
							"type": "address"
						}
					],
					"stateMutability": "view",
					"type": "function"
				},
				{
					"inputs": [
						{
							"internalType": "uint256",
							"name": "",
							"type": "uint256"
						}
					],
					"name": "wishes",
					"outputs": [
						{
							"internalType": "string",
							"name": "name",
							"type": "string"
						},
						{
							"internalType": "bool",
							"name": "isFullfilled",
							"type": "bool"
						}
					],
					"stateMutability": "view",
					"type": "function"
				}
			],
			"devdoc": {
				"kind": "dev",
				"methods": {},
				"version": 1
			},
			"evm": {
				"assembly": "    /* \"contracts/04day/Whislist.sol\":57:914  contract Wishlist { ... */\n  mstore(0x40, 0x80)\n    /* \"contracts/04day/Whislist.sol\":227:276  constructor() {... */\n  callvalue\n  dup1\n  iszero\n  tag_1\n  jumpi\n  revert(0x00, 0x00)\ntag_1:\n  pop\n    /* \"contracts/04day/Whislist.sol\":259:269  msg.sender */\n  caller\n    /* \"contracts/04day/Whislist.sol\":251:256  owner */\n  0x00\n  0x00\n    /* \"contracts/04day/Whislist.sol\":251:269  owner = msg.sender */\n  0x0100\n  exp\n  dup2\n  sload\n  dup2\n  0xffffffffffffffffffffffffffffffffffffffff\n  mul\n  not\n  and\n  swap1\n  dup4\n  0xffffffffffffffffffffffffffffffffffffffff\n  and\n  mul\n  or\n  swap1\n  sstore\n  pop\n    /* \"contracts/04day/Whislist.sol\":57:914  contract Wishlist { ... */\n  dataSize(sub_0)\n  dup1\n  dataOffset(sub_0)\n  0x00\n  codecopy\n  0x00\n  return\nstop\n\nsub_0: assembly {\n        /* \"contracts/04day/Whislist.sol\":57:914  contract Wishlist { ... */\n      mstore(0x40, 0x80)\n      callvalue\n      dup1\n      iszero\n      tag_1\n      jumpi\n      revert(0x00, 0x00)\n    tag_1:\n      pop\n      jumpi(tag_2, lt(calldatasize, 0x04))\n      shr(0xe0, calldataload(0x00))\n      dup1\n      0x0153b82b\n      eq\n      tag_3\n      jumpi\n      dup1\n      0x15c39a5a\n      eq\n      tag_4\n      jumpi\n      dup1\n      0x202cbac2\n      eq\n      tag_5\n      jumpi\n      dup1\n      0x8820e466\n      eq\n      tag_6\n      jumpi\n      dup1\n      0x8da5cb5b\n      eq\n      tag_7\n      jumpi\n      dup1\n      0xefe47167\n      eq\n      tag_8\n      jumpi\n    tag_2:\n      revert(0x00, 0x00)\n        /* \"contracts/04day/Whislist.sol\":649:740  function getWishes() public view returns (WishItem[] memory) {... */\n    tag_3:\n      tag_9\n      tag_10\n      jump\t// in\n    tag_9:\n      mload(0x40)\n      tag_11\n      swap2\n      swap1\n      tag_12\n      jump\t// in\n    tag_11:\n      mload(0x40)\n      dup1\n      swap2\n      sub\n      swap1\n      return\n        /* \"contracts/04day/Whislist.sol\":282:435  function addWish(string memory _name) public {... */\n    tag_4:\n      tag_13\n      0x04\n      dup1\n      calldatasize\n      sub\n      dup2\n      add\n      swap1\n      tag_14\n      swap2\n      swap1\n      tag_15\n      jump\t// in\n    tag_14:\n      tag_16\n      jump\t// in\n    tag_13:\n      stop\n        /* \"contracts/04day/Whislist.sol\":746:912  function getWish(uint256 _index) public view returns(WishItem memory) {... */\n    tag_5:\n      tag_17\n      0x04\n      dup1\n      calldatasize\n      sub\n      dup2\n      add\n      swap1\n      tag_18\n      swap2\n      swap1\n      tag_19\n      jump\t// in\n    tag_18:\n      tag_20\n      jump\t// in\n    tag_17:\n      mload(0x40)\n      tag_21\n      swap2\n      swap1\n      tag_22\n      jump\t// in\n    tag_21:\n      mload(0x40)\n      dup1\n      swap2\n      sub\n      swap1\n      return\n        /* \"contracts/04day/Whislist.sol\":191:215  WishItem[] public wishes */\n    tag_6:\n      tag_23\n      0x04\n      dup1\n      calldatasize\n      sub\n      dup2\n      add\n      swap1\n      tag_24\n      swap2\n      swap1\n      tag_19\n      jump\t// in\n    tag_24:\n      tag_25\n      jump\t// in\n    tag_23:\n      mload(0x40)\n      tag_26\n      swap3\n      swap2\n      swap1\n      tag_27\n      jump\t// in\n    tag_26:\n      mload(0x40)\n      dup1\n      swap2\n      sub\n      swap1\n      return\n        /* \"contracts/04day/Whislist.sol\":159:179  address public owner */\n    tag_7:\n      tag_28\n      tag_29\n      jump\t// in\n    tag_28:\n      mload(0x40)\n      tag_30\n      swap2\n      swap1\n      tag_31\n      jump\t// in\n    tag_30:\n      mload(0x40)\n      dup1\n      swap2\n      sub\n      swap1\n      return\n        /* \"contracts/04day/Whislist.sol\":441:643  function fulfillWish(uint _index) public {... */\n    tag_8:\n      tag_32\n      0x04\n      dup1\n      calldatasize\n      sub\n      dup2\n      add\n      swap1\n      tag_33\n      swap2\n      swap1\n      tag_19\n      jump\t// in\n    tag_33:\n      tag_34\n      jump\t// in\n    tag_32:\n      stop\n        /* \"contracts/04day/Whislist.sol\":649:740  function getWishes() public view returns (WishItem[] memory) {... */\n    tag_10:\n        /* \"contracts/04day/Whislist.sol\":691:708  WishItem[] memory */\n      0x60\n        /* \"contracts/04day/Whislist.sol\":727:733  wishes */\n      0x01\n        /* \"contracts/04day/Whislist.sol\":720:733  return wishes */\n      dup1\n      sload\n      dup1\n      0x20\n      mul\n      0x20\n      add\n      mload(0x40)\n      swap1\n      dup2\n      add\n      0x40\n      mstore\n      dup1\n      swap3\n      swap2\n      swap1\n      dup2\n      dup2\n      mstore\n      0x20\n      add\n      0x00\n      swap1\n    tag_36:\n      dup3\n      dup3\n      lt\n      iszero\n      tag_37\n      jumpi\n      dup4\n      dup3\n      swap1\n      0x00\n      mstore\n      keccak256(0x00, 0x20)\n      swap1\n      0x02\n      mul\n      add\n      mload(0x40)\n      dup1\n      0x40\n      add\n      0x40\n      mstore\n      swap1\n      dup2\n      0x00\n      dup3\n      add\n      dup1\n      sload\n      tag_39\n      swap1\n      tag_40\n      jump\t// in\n    tag_39:\n      dup1\n      0x1f\n      add\n      0x20\n      dup1\n      swap2\n      div\n      mul\n      0x20\n      add\n      mload(0x40)\n      swap1\n      dup2\n      add\n      0x40\n      mstore\n      dup1\n      swap3\n      swap2\n      swap1\n      dup2\n      dup2\n      mstore\n      0x20\n      add\n      dup3\n      dup1\n      sload\n      tag_41\n      swap1\n      tag_40\n      jump\t// in\n    tag_41:\n      dup1\n      iszero\n      tag_42\n      jumpi\n      dup1\n      0x1f\n      lt\n      tag_43\n      jumpi\n      0x0100\n      dup1\n      dup4\n      sload\n      div\n      mul\n      dup4\n      mstore\n      swap2\n      0x20\n      add\n      swap2\n      jump(tag_42)\n    tag_43:\n      dup3\n      add\n      swap2\n      swap1\n      0x00\n      mstore\n      keccak256(0x00, 0x20)\n      swap1\n    tag_44:\n      dup2\n      sload\n      dup2\n      mstore\n      swap1\n      0x01\n      add\n      swap1\n      0x20\n      add\n      dup1\n      dup4\n      gt\n      tag_44\n      jumpi\n      dup3\n      swap1\n      sub\n      0x1f\n      and\n      dup3\n      add\n      swap2\n    tag_42:\n      pop\n      pop\n      pop\n      pop\n      pop\n      dup2\n      mstore\n      0x20\n      add\n      0x01\n      dup3\n      add\n      0x00\n      swap1\n      sload\n      swap1\n      0x0100\n      exp\n      swap1\n      div\n      0xff\n      and\n      iszero\n      iszero\n      iszero\n      iszero\n      dup2\n      mstore\n      pop\n      pop\n      dup2\n      mstore\n      0x20\n      add\n      swap1\n      0x01\n      add\n      swap1\n      jump(tag_36)\n    tag_37:\n      pop\n      pop\n      pop\n      pop\n      swap1\n      pop\n        /* \"contracts/04day/Whislist.sol\":649:740  function getWishes() public view returns (WishItem[] memory) {... */\n      swap1\n      jump\t// out\n        /* \"contracts/04day/Whislist.sol\":282:435  function addWish(string memory _name) public {... */\n    tag_16:\n        /* \"contracts/04day/Whislist.sol\":337:343  wishes */\n      0x01\n        /* \"contracts/04day/Whislist.sol\":349:427  WishItem({... */\n      mload(0x40)\n      dup1\n      0x40\n      add\n      0x40\n      mstore\n      dup1\n        /* \"contracts/04day/Whislist.sol\":378:383  _name */\n      dup4\n        /* \"contracts/04day/Whislist.sol\":349:427  WishItem({... */\n      dup2\n      mstore\n      0x20\n      add\n        /* \"contracts/04day/Whislist.sol\":411:416  false */\n      0x00\n        /* \"contracts/04day/Whislist.sol\":349:427  WishItem({... */\n      iszero\n      iszero\n      dup2\n      mstore\n      pop\n        /* \"contracts/04day/Whislist.sol\":337:428  wishes.push(WishItem({... */\n      swap1\n      dup1\n      0x01\n      dup2\n      sload\n      add\n      dup1\n      dup3\n      sstore\n      dup1\n      swap2\n      pop\n      pop\n      0x01\n      swap1\n      sub\n      swap1\n      0x00\n      mstore\n      keccak256(0x00, 0x20)\n      swap1\n      0x02\n      mul\n      add\n      0x00\n      swap1\n      swap2\n      swap1\n      swap2\n      swap1\n      swap2\n      pop\n      0x00\n      dup3\n      add\n      mload\n      dup2\n      0x00\n      add\n      swap1\n      dup2\n      tag_47\n      swap2\n      swap1\n      tag_48\n      jump\t// in\n    tag_47:\n      pop\n      0x20\n      dup3\n      add\n      mload\n      dup2\n      0x01\n      add\n      exp(0x0100, 0x00)\n      dup2\n      sload\n      dup2\n      0xff\n      mul\n      not\n      and\n      swap1\n      dup4\n      iszero\n      iszero\n      mul\n      or\n      swap1\n      sstore\n      pop\n      pop\n      pop\n        /* \"contracts/04day/Whislist.sol\":282:435  function addWish(string memory _name) public {... */\n      pop\n      jump\t// out\n        /* \"contracts/04day/Whislist.sol\":746:912  function getWish(uint256 _index) public view returns(WishItem memory) {... */\n    tag_20:\n        /* \"contracts/04day/Whislist.sol\":799:814  WishItem memory */\n      tag_49\n      tag_50\n      jump\t// in\n    tag_49:\n        /* \"contracts/04day/Whislist.sol\":843:849  wishes */\n      0x01\n        /* \"contracts/04day/Whislist.sol\":843:856  wishes.length */\n      dup1\n      sload\n      swap1\n      pop\n        /* \"contracts/04day/Whislist.sol\":834:840  _index */\n      dup3\n        /* \"contracts/04day/Whislist.sol\":834:856  _index < wishes.length */\n      lt\n        /* \"contracts/04day/Whislist.sol\":826:874  require(_index < wishes.length, \"Invalid index\") */\n      tag_52\n      jumpi\n      mload(0x40)\n      0x08c379a000000000000000000000000000000000000000000000000000000000\n      dup2\n      mstore\n      0x04\n      add\n      tag_53\n      swap1\n      tag_54\n      jump\t// in\n    tag_53:\n      mload(0x40)\n      dup1\n      swap2\n      sub\n      swap1\n      revert\n    tag_52:\n        /* \"contracts/04day/Whislist.sol\":891:897  wishes */\n      0x01\n        /* \"contracts/04day/Whislist.sol\":898:904  _index */\n      dup3\n        /* \"contracts/04day/Whislist.sol\":891:905  wishes[_index] */\n      dup2\n      sload\n      dup2\n      lt\n      tag_55\n      jumpi\n      tag_56\n      tag_57\n      jump\t// in\n    tag_56:\n    tag_55:\n      swap1\n      0x00\n      mstore\n      keccak256(0x00, 0x20)\n      swap1\n      0x02\n      mul\n      add\n        /* \"contracts/04day/Whislist.sol\":884:905  return wishes[_index] */\n      mload(0x40)\n      dup1\n      0x40\n      add\n      0x40\n      mstore\n      swap1\n      dup2\n      0x00\n      dup3\n      add\n      dup1\n      sload\n      tag_59\n      swap1\n      tag_40\n      jump\t// in\n    tag_59:\n      dup1\n      0x1f\n      add\n      0x20\n      dup1\n      swap2\n      div\n      mul\n      0x20\n      add\n      mload(0x40)\n      swap1\n      dup2\n      add\n      0x40\n      mstore\n      dup1\n      swap3\n      swap2\n      swap1\n      dup2\n      dup2\n      mstore\n      0x20\n      add\n      dup3\n      dup1\n      sload\n      tag_60\n      swap1\n      tag_40\n      jump\t// in\n    tag_60:\n      dup1\n      iszero\n      tag_61\n      jumpi\n      dup1\n      0x1f\n      lt\n      tag_62\n      jumpi\n      0x0100\n      dup1\n      dup4\n      sload\n      div\n      mul\n      dup4\n      mstore\n      swap2\n      0x20\n      add\n      swap2\n      jump(tag_61)\n    tag_62:\n      dup3\n      add\n      swap2\n      swap1\n      0x00\n      mstore\n      keccak256(0x00, 0x20)\n      swap1\n    tag_63:\n      dup2\n      sload\n      dup2\n      mstore\n      swap1\n      0x01\n      add\n      swap1\n      0x20\n      add\n      dup1\n      dup4\n      gt\n      tag_63\n      jumpi\n      dup3\n      swap1\n      sub\n      0x1f\n      and\n      dup3\n      add\n      swap2\n    tag_61:\n      pop\n      pop\n      pop\n      pop\n      pop\n      dup2\n      mstore\n      0x20\n      add\n      0x01\n      dup3\n      add\n      0x00\n      swap1\n      sload\n      swap1\n      0x0100\n      exp\n      swap1\n      div\n      0xff\n      and\n      iszero\n      iszero\n      iszero\n      iszero\n      dup2\n      mstore\n      pop\n      pop\n      swap1\n      pop\n        /* \"contracts/04day/Whislist.sol\":746:912  function getWish(uint256 _index) public view returns(WishItem memory) {... */\n      swap2\n      swap1\n      pop\n      jump\t// out\n        /* \"contracts/04day/Whislist.sol\":191:215  WishItem[] public wishes */\n    tag_25:\n      0x01\n      dup2\n      dup2\n      sload\n      dup2\n      lt\n      tag_64\n      jumpi\n      0x00\n      dup1\n      revert\n    tag_64:\n      swap1\n      0x00\n      mstore\n      keccak256(0x00, 0x20)\n      swap1\n      0x02\n      mul\n      add\n      0x00\n      swap2\n      pop\n      swap1\n      pop\n      dup1\n      0x00\n      add\n      dup1\n      sload\n      tag_66\n      swap1\n      tag_40\n      jump\t// in\n    tag_66:\n      dup1\n      0x1f\n      add\n      0x20\n      dup1\n      swap2\n      div\n      mul\n      0x20\n      add\n      mload(0x40)\n      swap1\n      dup2\n      add\n      0x40\n      mstore\n      dup1\n      swap3\n      swap2\n      swap1\n      dup2\n      dup2\n      mstore\n      0x20\n      add\n      dup3\n      dup1\n      sload\n      tag_67\n      swap1\n      tag_40\n      jump\t// in\n    tag_67:\n      dup1\n      iszero\n      tag_68\n      jumpi\n      dup1\n      0x1f\n      lt\n      tag_69\n      jumpi\n      0x0100\n      dup1\n      dup4\n      sload\n      div\n      mul\n      dup4\n      mstore\n      swap2\n      0x20\n      add\n      swap2\n      jump(tag_68)\n    tag_69:\n      dup3\n      add\n      swap2\n      swap1\n      0x00\n      mstore\n      keccak256(0x00, 0x20)\n      swap1\n    tag_70:\n      dup2\n      sload\n      dup2\n      mstore\n      swap1\n      0x01\n      add\n      swap1\n      0x20\n      add\n      dup1\n      dup4\n      gt\n      tag_70\n      jumpi\n      dup3\n      swap1\n      sub\n      0x1f\n      and\n      dup3\n      add\n      swap2\n    tag_68:\n      pop\n      pop\n      pop\n      pop\n      pop\n      swap1\n      dup1\n      0x01\n      add\n      0x00\n      swap1\n      sload\n      swap1\n      0x0100\n      exp\n      swap1\n      div\n      0xff\n      and\n      swap1\n      pop\n      dup3\n      jump\t// out\n        /* \"contracts/04day/Whislist.sol\":159:179  address public owner */\n    tag_29:\n      0x00\n      0x00\n      swap1\n      sload\n      swap1\n      0x0100\n      exp\n      swap1\n      div\n      0xffffffffffffffffffffffffffffffffffffffff\n      and\n      dup2\n      jump\t// out\n        /* \"contracts/04day/Whislist.sol\":441:643  function fulfillWish(uint _index) public {... */\n    tag_34:\n        /* \"contracts/04day/Whislist.sol\":514:519  owner */\n      0x00\n      0x00\n      swap1\n      sload\n      swap1\n      0x0100\n      exp\n      swap1\n      div\n      0xffffffffffffffffffffffffffffffffffffffff\n      and\n        /* \"contracts/04day/Whislist.sol\":500:519  msg.sender == owner */\n      0xffffffffffffffffffffffffffffffffffffffff\n      and\n        /* \"contracts/04day/Whislist.sol\":500:510  msg.sender */\n      caller\n        /* \"contracts/04day/Whislist.sol\":500:519  msg.sender == owner */\n      0xffffffffffffffffffffffffffffffffffffffff\n      and\n      eq\n        /* \"contracts/04day/Whislist.sol\":492:534  require(msg.sender == owner, \"Only owner\") */\n      tag_72\n      jumpi\n      mload(0x40)\n      0x08c379a000000000000000000000000000000000000000000000000000000000\n      dup2\n      mstore\n      0x04\n      add\n      tag_73\n      swap1\n      tag_74\n      jump\t// in\n    tag_73:\n      mload(0x40)\n      dup1\n      swap2\n      sub\n      swap1\n      revert\n    tag_72:\n        /* \"contracts/04day/Whislist.sol\":561:567  wishes */\n      0x01\n        /* \"contracts/04day/Whislist.sol\":561:574  wishes.length */\n      dup1\n      sload\n      swap1\n      pop\n        /* \"contracts/04day/Whislist.sol\":552:558  _index */\n      dup2\n        /* \"contracts/04day/Whislist.sol\":552:574  _index < wishes.length */\n      lt\n        /* \"contracts/04day/Whislist.sol\":544:592  require(_index < wishes.length, \"Invalid index\") */\n      tag_75\n      jumpi\n      mload(0x40)\n      0x08c379a000000000000000000000000000000000000000000000000000000000\n      dup2\n      mstore\n      0x04\n      add\n      tag_76\n      swap1\n      tag_54\n      jump\t// in\n    tag_76:\n      mload(0x40)\n      dup1\n      swap2\n      sub\n      swap1\n      revert\n    tag_75:\n        /* \"contracts/04day/Whislist.sol\":632:636  true */\n      0x01\n        /* \"contracts/04day/Whislist.sol\":602:608  wishes */\n      dup1\n        /* \"contracts/04day/Whislist.sol\":609:615  _index */\n      dup3\n        /* \"contracts/04day/Whislist.sol\":602:616  wishes[_index] */\n      dup2\n      sload\n      dup2\n      lt\n      tag_77\n      jumpi\n      tag_78\n      tag_57\n      jump\t// in\n    tag_78:\n    tag_77:\n      swap1\n      0x00\n      mstore\n      keccak256(0x00, 0x20)\n      swap1\n      0x02\n      mul\n      add\n        /* \"contracts/04day/Whislist.sol\":602:629  wishes[_index].isFullfilled */\n      0x01\n      add\n      0x00\n        /* \"contracts/04day/Whislist.sol\":602:636  wishes[_index].isFullfilled = true */\n      0x0100\n      exp\n      dup2\n      sload\n      dup2\n      0xff\n      mul\n      not\n      and\n      swap1\n      dup4\n      iszero\n      iszero\n      mul\n      or\n      swap1\n      sstore\n      pop\n        /* \"contracts/04day/Whislist.sol\":441:643  function fulfillWish(uint _index) public {... */\n      pop\n      jump\t// out\n    tag_50:\n      mload(0x40)\n      dup1\n      0x40\n      add\n      0x40\n      mstore\n      dup1\n      0x60\n      dup2\n      mstore\n      0x20\n      add\n      iszero(iszero(0x00))\n      dup2\n      mstore\n      pop\n      swap1\n      jump\t// out\n        /* \"#utility.yul\":7:144   */\n    tag_80:\n        /* \"#utility.yul\":97:103   */\n      0x00\n        /* \"#utility.yul\":131:136   */\n      dup2\n        /* \"#utility.yul\":125:137   */\n      mload\n        /* \"#utility.yul\":115:137   */\n      swap1\n      pop\n        /* \"#utility.yul\":7:144   */\n      swap2\n      swap1\n      pop\n      jump\t// out\n        /* \"#utility.yul\":150:357   */\n    tag_81:\n        /* \"#utility.yul\":272:283   */\n      0x00\n        /* \"#utility.yul\":306:312   */\n      dup3\n        /* \"#utility.yul\":301:304   */\n      dup3\n        /* \"#utility.yul\":294:313   */\n      mstore\n        /* \"#utility.yul\":346:350   */\n      0x20\n        /* \"#utility.yul\":341:344   */\n      dup3\n        /* \"#utility.yul\":337:351   */\n      add\n        /* \"#utility.yul\":322:351   */\n      swap1\n      pop\n        /* \"#utility.yul\":150:357   */\n      swap3\n      swap2\n      pop\n      pop\n      jump\t// out\n        /* \"#utility.yul\":363:518   */\n    tag_82:\n        /* \"#utility.yul\":453:457   */\n      0x00\n        /* \"#utility.yul\":476:479   */\n      dup2\n        /* \"#utility.yul\":468:479   */\n      swap1\n      pop\n        /* \"#utility.yul\":506:510   */\n      0x20\n        /* \"#utility.yul\":501:504   */\n      dup3\n        /* \"#utility.yul\":497:511   */\n      add\n        /* \"#utility.yul\":489:511   */\n      swap1\n      pop\n        /* \"#utility.yul\":363:518   */\n      swap2\n      swap1\n      pop\n      jump\t// out\n        /* \"#utility.yul\":524:623   */\n    tag_83:\n        /* \"#utility.yul\":576:582   */\n      0x00\n        /* \"#utility.yul\":610:615   */\n      dup2\n        /* \"#utility.yul\":604:616   */\n      mload\n        /* \"#utility.yul\":594:616   */\n      swap1\n      pop\n        /* \"#utility.yul\":524:623   */\n      swap2\n      swap1\n      pop\n      jump\t// out\n        /* \"#utility.yul\":629:788   */\n    tag_84:\n        /* \"#utility.yul\":703:714   */\n      0x00\n        /* \"#utility.yul\":737:743   */\n      dup3\n        /* \"#utility.yul\":732:735   */\n      dup3\n        /* \"#utility.yul\":725:744   */\n      mstore\n        /* \"#utility.yul\":777:781   */\n      0x20\n        /* \"#utility.yul\":772:775   */\n      dup3\n        /* \"#utility.yul\":768:782   */\n      add\n        /* \"#utility.yul\":753:782   */\n      swap1\n      pop\n        /* \"#utility.yul\":629:788   */\n      swap3\n      swap2\n      pop\n      pop\n      jump\t// out\n        /* \"#utility.yul\":794:933   */\n    tag_85:\n        /* \"#utility.yul\":883:889   */\n      dup3\n        /* \"#utility.yul\":878:881   */\n      dup2\n        /* \"#utility.yul\":873:876   */\n      dup4\n        /* \"#utility.yul\":867:890   */\n      mcopy\n        /* \"#utility.yul\":924:925   */\n      0x00\n        /* \"#utility.yul\":915:921   */\n      dup4\n        /* \"#utility.yul\":910:913   */\n      dup4\n        /* \"#utility.yul\":906:922   */\n      add\n        /* \"#utility.yul\":899:926   */\n      mstore\n        /* \"#utility.yul\":794:933   */\n      pop\n      pop\n      pop\n      jump\t// out\n        /* \"#utility.yul\":939:1041   */\n    tag_86:\n        /* \"#utility.yul\":980:986   */\n      0x00\n        /* \"#utility.yul\":1031:1033   */\n      0x1f\n        /* \"#utility.yul\":1027:1034   */\n      not\n        /* \"#utility.yul\":1022:1024   */\n      0x1f\n        /* \"#utility.yul\":1015:1020   */\n      dup4\n        /* \"#utility.yul\":1011:1025   */\n      add\n        /* \"#utility.yul\":1007:1035   */\n      and\n        /* \"#utility.yul\":997:1035   */\n      swap1\n      pop\n        /* \"#utility.yul\":939:1041   */\n      swap2\n      swap1\n      pop\n      jump\t// out\n        /* \"#utility.yul\":1047:1404   */\n    tag_87:\n        /* \"#utility.yul\":1125:1128   */\n      0x00\n        /* \"#utility.yul\":1153:1192   */\n      tag_145\n        /* \"#utility.yul\":1186:1191   */\n      dup3\n        /* \"#utility.yul\":1153:1192   */\n      tag_83\n      jump\t// in\n    tag_145:\n        /* \"#utility.yul\":1208:1269   */\n      tag_146\n        /* \"#utility.yul\":1262:1268   */\n      dup2\n        /* \"#utility.yul\":1257:1260   */\n      dup6\n        /* \"#utility.yul\":1208:1269   */\n      tag_84\n      jump\t// in\n    tag_146:\n        /* \"#utility.yul\":1201:1269   */\n      swap4\n      pop\n        /* \"#utility.yul\":1278:1343   */\n      tag_147\n        /* \"#utility.yul\":1336:1342   */\n      dup2\n        /* \"#utility.yul\":1331:1334   */\n      dup6\n        /* \"#utility.yul\":1324:1328   */\n      0x20\n        /* \"#utility.yul\":1317:1322   */\n      dup7\n        /* \"#utility.yul\":1313:1329   */\n      add\n        /* \"#utility.yul\":1278:1343   */\n      tag_85\n      jump\t// in\n    tag_147:\n        /* \"#utility.yul\":1368:1397   */\n      tag_148\n        /* \"#utility.yul\":1390:1396   */\n      dup2\n        /* \"#utility.yul\":1368:1397   */\n      tag_86\n      jump\t// in\n    tag_148:\n        /* \"#utility.yul\":1363:1366   */\n      dup5\n        /* \"#utility.yul\":1359:1398   */\n      add\n        /* \"#utility.yul\":1352:1398   */\n      swap2\n      pop\n        /* \"#utility.yul\":1129:1404   */\n      pop\n        /* \"#utility.yul\":1047:1404   */\n      swap3\n      swap2\n      pop\n      pop\n      jump\t// out\n        /* \"#utility.yul\":1410:1500   */\n    tag_88:\n        /* \"#utility.yul\":1444:1451   */\n      0x00\n        /* \"#utility.yul\":1487:1492   */\n      dup2\n        /* \"#utility.yul\":1480:1493   */\n      iszero\n        /* \"#utility.yul\":1473:1494   */\n      iszero\n        /* \"#utility.yul\":1462:1494   */\n      swap1\n      pop\n        /* \"#utility.yul\":1410:1500   */\n      swap2\n      swap1\n      pop\n      jump\t// out\n        /* \"#utility.yul\":1506:1605   */\n    tag_89:\n        /* \"#utility.yul\":1577:1598   */\n      tag_151\n        /* \"#utility.yul\":1592:1597   */\n      dup2\n        /* \"#utility.yul\":1577:1598   */\n      tag_88\n      jump\t// in\n    tag_151:\n        /* \"#utility.yul\":1572:1575   */\n      dup3\n        /* \"#utility.yul\":1565:1599   */\n      mstore\n        /* \"#utility.yul\":1506:1605   */\n      pop\n      pop\n      jump\t// out\n        /* \"#utility.yul\":1671:2265   */\n    tag_90:\n        /* \"#utility.yul\":1776:1779   */\n      0x00\n        /* \"#utility.yul\":1812:1816   */\n      0x40\n        /* \"#utility.yul\":1807:1810   */\n      dup4\n        /* \"#utility.yul\":1803:1817   */\n      add\n        /* \"#utility.yul\":1899:1903   */\n      0x00\n        /* \"#utility.yul\":1892:1897   */\n      dup4\n        /* \"#utility.yul\":1888:1904   */\n      add\n        /* \"#utility.yul\":1882:1905   */\n      mload\n        /* \"#utility.yul\":1952:1955   */\n      dup5\n        /* \"#utility.yul\":1946:1950   */\n      dup3\n        /* \"#utility.yul\":1942:1956   */\n      sub\n        /* \"#utility.yul\":1935:1939   */\n      0x00\n        /* \"#utility.yul\":1930:1933   */\n      dup7\n        /* \"#utility.yul\":1926:1940   */\n      add\n        /* \"#utility.yul\":1919:1957   */\n      mstore\n        /* \"#utility.yul\":1978:2051   */\n      tag_153\n        /* \"#utility.yul\":2046:2050   */\n      dup3\n        /* \"#utility.yul\":2032:2044   */\n      dup3\n        /* \"#utility.yul\":1978:2051   */\n      tag_87\n      jump\t// in\n    tag_153:\n        /* \"#utility.yul\":1970:2051   */\n      swap2\n      pop\n        /* \"#utility.yul\":1827:2062   */\n      pop\n        /* \"#utility.yul\":2152:2156   */\n      0x20\n        /* \"#utility.yul\":2145:2150   */\n      dup4\n        /* \"#utility.yul\":2141:2157   */\n      add\n        /* \"#utility.yul\":2135:2158   */\n      mload\n        /* \"#utility.yul\":2171:2228   */\n      tag_154\n        /* \"#utility.yul\":2222:2226   */\n      0x20\n        /* \"#utility.yul\":2217:2220   */\n      dup7\n        /* \"#utility.yul\":2213:2227   */\n      add\n        /* \"#utility.yul\":2199:2211   */\n      dup3\n        /* \"#utility.yul\":2171:2228   */\n      tag_89\n      jump\t// in\n    tag_154:\n        /* \"#utility.yul\":2072:2238   */\n      pop\n        /* \"#utility.yul\":2255:2259   */\n      dup1\n        /* \"#utility.yul\":2248:2259   */\n      swap2\n      pop\n        /* \"#utility.yul\":1781:2265   */\n      pop\n        /* \"#utility.yul\":1671:2265   */\n      swap3\n      swap2\n      pop\n      pop\n      jump\t// out\n        /* \"#utility.yul\":2271:2519   */\n    tag_91:\n        /* \"#utility.yul\":2386:2396   */\n      0x00\n        /* \"#utility.yul\":2421:2513   */\n      tag_156\n        /* \"#utility.yul\":2509:2512   */\n      dup4\n        /* \"#utility.yul\":2501:2507   */\n      dup4\n        /* \"#utility.yul\":2421:2513   */\n      tag_90\n      jump\t// in\n    tag_156:\n        /* \"#utility.yul\":2407:2513   */\n      swap1\n      pop\n        /* \"#utility.yul\":2271:2519   */\n      swap3\n      swap2\n      pop\n      pop\n      jump\t// out\n        /* \"#utility.yul\":2525:2661   */\n    tag_92:\n        /* \"#utility.yul\":2618:2622   */\n      0x00\n        /* \"#utility.yul\":2650:2654   */\n      0x20\n        /* \"#utility.yul\":2645:2648   */\n      dup3\n        /* \"#utility.yul\":2641:2655   */\n      add\n        /* \"#utility.yul\":2633:2655   */\n      swap1\n      pop\n        /* \"#utility.yul\":2525:2661   */\n      swap2\n      swap1\n      pop\n      jump\t// out\n        /* \"#utility.yul\":2731:3826   */\n    tag_93:\n        /* \"#utility.yul\":2896:2899   */\n      0x00\n        /* \"#utility.yul\":2925:3002   */\n      tag_159\n        /* \"#utility.yul\":2996:3001   */\n      dup3\n        /* \"#utility.yul\":2925:3002   */\n      tag_80\n      jump\t// in\n    tag_159:\n        /* \"#utility.yul\":3018:3127   */\n      tag_160\n        /* \"#utility.yul\":3120:3126   */\n      dup2\n        /* \"#utility.yul\":3115:3118   */\n      dup6\n        /* \"#utility.yul\":3018:3127   */\n      tag_81\n      jump\t// in\n    tag_160:\n        /* \"#utility.yul\":3011:3127   */\n      swap4\n      pop\n        /* \"#utility.yul\":3153:3156   */\n      dup4\n        /* \"#utility.yul\":3198:3202   */\n      0x20\n        /* \"#utility.yul\":3190:3196   */\n      dup3\n        /* \"#utility.yul\":3186:3203   */\n      mul\n        /* \"#utility.yul\":3181:3184   */\n      dup6\n        /* \"#utility.yul\":3177:3204   */\n      add\n        /* \"#utility.yul\":3228:3307   */\n      tag_161\n        /* \"#utility.yul\":3301:3306   */\n      dup6\n        /* \"#utility.yul\":3228:3307   */\n      tag_82\n      jump\t// in\n    tag_161:\n        /* \"#utility.yul\":3330:3337   */\n      dup1\n        /* \"#utility.yul\":3361:3362   */\n      0x00\n        /* \"#utility.yul\":3346:3781   */\n    tag_162:\n        /* \"#utility.yul\":3371:3377   */\n      dup6\n        /* \"#utility.yul\":3368:3369   */\n      dup2\n        /* \"#utility.yul\":3365:3378   */\n      lt\n        /* \"#utility.yul\":3346:3781   */\n      iszero\n      tag_164\n      jumpi\n        /* \"#utility.yul\":3442:3451   */\n      dup5\n        /* \"#utility.yul\":3436:3440   */\n      dup5\n        /* \"#utility.yul\":3432:3452   */\n      sub\n        /* \"#utility.yul\":3427:3430   */\n      dup10\n        /* \"#utility.yul\":3420:3453   */\n      mstore\n        /* \"#utility.yul\":3493:3499   */\n      dup2\n        /* \"#utility.yul\":3487:3500   */\n      mload\n        /* \"#utility.yul\":3521:3631   */\n      tag_165\n        /* \"#utility.yul\":3626:3630   */\n      dup6\n        /* \"#utility.yul\":3611:3624   */\n      dup3\n        /* \"#utility.yul\":3521:3631   */\n      tag_91\n      jump\t// in\n    tag_165:\n        /* \"#utility.yul\":3513:3631   */\n      swap5\n      pop\n        /* \"#utility.yul\":3654:3737   */\n      tag_166\n        /* \"#utility.yul\":3730:3736   */\n      dup4\n        /* \"#utility.yul\":3654:3737   */\n      tag_92\n      jump\t// in\n    tag_166:\n        /* \"#utility.yul\":3644:3737   */\n      swap3\n      pop\n        /* \"#utility.yul\":3766:3770   */\n      0x20\n        /* \"#utility.yul\":3761:3764   */\n      dup11\n        /* \"#utility.yul\":3757:3771   */\n      add\n        /* \"#utility.yul\":3750:3771   */\n      swap10\n      pop\n        /* \"#utility.yul\":3406:3781   */\n      pop\n        /* \"#utility.yul\":3393:3394   */\n      0x01\n        /* \"#utility.yul\":3390:3391   */\n      dup2\n        /* \"#utility.yul\":3386:3395   */\n      add\n        /* \"#utility.yul\":3381:3395   */\n      swap1\n      pop\n        /* \"#utility.yul\":3346:3781   */\n      jump(tag_162)\n    tag_164:\n        /* \"#utility.yul\":3350:3364   */\n      pop\n        /* \"#utility.yul\":3797:3801   */\n      dup3\n        /* \"#utility.yul\":3790:3801   */\n      swap8\n      pop\n        /* \"#utility.yul\":3817:3820   */\n      dup8\n        /* \"#utility.yul\":3810:3820   */\n      swap6\n      pop\n        /* \"#utility.yul\":2901:3826   */\n      pop\n      pop\n      pop\n      pop\n      pop\n        /* \"#utility.yul\":2731:3826   */\n      swap3\n      swap2\n      pop\n      pop\n      jump\t// out\n        /* \"#utility.yul\":3832:4297   */\n    tag_12:\n        /* \"#utility.yul\":4021:4025   */\n      0x00\n        /* \"#utility.yul\":4059:4061   */\n      0x20\n        /* \"#utility.yul\":4048:4057   */\n      dup3\n        /* \"#utility.yul\":4044:4062   */\n      add\n        /* \"#utility.yul\":4036:4062   */\n      swap1\n      pop\n        /* \"#utility.yul\":4108:4117   */\n      dup2\n        /* \"#utility.yul\":4102:4106   */\n      dup2\n        /* \"#utility.yul\":4098:4118   */\n      sub\n        /* \"#utility.yul\":4094:4095   */\n      0x00\n        /* \"#utility.yul\":4083:4092   */\n      dup4\n        /* \"#utility.yul\":4079:4096   */\n      add\n        /* \"#utility.yul\":4072:4119   */\n      mstore\n        /* \"#utility.yul\":4136:4290   */\n      tag_168\n        /* \"#utility.yul\":4285:4289   */\n      dup2\n        /* \"#utility.yul\":4276:4282   */\n      dup5\n        /* \"#utility.yul\":4136:4290   */\n      tag_93\n      jump\t// in\n    tag_168:\n        /* \"#utility.yul\":4128:4290   */\n      swap1\n      pop\n        /* \"#utility.yul\":3832:4297   */\n      swap3\n      swap2\n      pop\n      pop\n      jump\t// out\n        /* \"#utility.yul\":4303:4378   */\n    tag_94:\n        /* \"#utility.yul\":4336:4342   */\n      0x00\n        /* \"#utility.yul\":4369:4371   */\n      0x40\n        /* \"#utility.yul\":4363:4372   */\n      mload\n        /* \"#utility.yul\":4353:4372   */\n      swap1\n      pop\n        /* \"#utility.yul\":4303:4378   */\n      swap1\n      jump\t// out\n        /* \"#utility.yul\":4384:4501   */\n    tag_95:\n        /* \"#utility.yul\":4493:4494   */\n      0x00\n        /* \"#utility.yul\":4490:4491   */\n      0x00\n        /* \"#utility.yul\":4483:4495   */\n      revert\n        /* \"#utility.yul\":4507:4624   */\n    tag_96:\n        /* \"#utility.yul\":4616:4617   */\n      0x00\n        /* \"#utility.yul\":4613:4614   */\n      0x00\n        /* \"#utility.yul\":4606:4618   */\n      revert\n        /* \"#utility.yul\":4630:4747   */\n    tag_97:\n        /* \"#utility.yul\":4739:4740   */\n      0x00\n        /* \"#utility.yul\":4736:4737   */\n      0x00\n        /* \"#utility.yul\":4729:4741   */\n      revert\n        /* \"#utility.yul\":4753:4870   */\n    tag_98:\n        /* \"#utility.yul\":4862:4863   */\n      0x00\n        /* \"#utility.yul\":4859:4860   */\n      0x00\n        /* \"#utility.yul\":4852:4864   */\n      revert\n        /* \"#utility.yul\":4876:5056   */\n    tag_99:\n        /* \"#utility.yul\":4924:5001   */\n      0x4e487b7100000000000000000000000000000000000000000000000000000000\n        /* \"#utility.yul\":4921:4922   */\n      0x00\n        /* \"#utility.yul\":4914:5002   */\n      mstore\n        /* \"#utility.yul\":5021:5025   */\n      0x41\n        /* \"#utility.yul\":5018:5019   */\n      0x04\n        /* \"#utility.yul\":5011:5026   */\n      mstore\n        /* \"#utility.yul\":5045:5049   */\n      0x24\n        /* \"#utility.yul\":5042:5043   */\n      0x00\n        /* \"#utility.yul\":5035:5050   */\n      revert\n        /* \"#utility.yul\":5062:5343   */\n    tag_100:\n        /* \"#utility.yul\":5145:5172   */\n      tag_176\n        /* \"#utility.yul\":5167:5171   */\n      dup3\n        /* \"#utility.yul\":5145:5172   */\n      tag_86\n      jump\t// in\n    tag_176:\n        /* \"#utility.yul\":5137:5143   */\n      dup2\n        /* \"#utility.yul\":5133:5173   */\n      add\n        /* \"#utility.yul\":5275:5281   */\n      dup2\n        /* \"#utility.yul\":5263:5273   */\n      dup2\n        /* \"#utility.yul\":5260:5282   */\n      lt\n        /* \"#utility.yul\":5239:5257   */\n      0xffffffffffffffff\n        /* \"#utility.yul\":5227:5237   */\n      dup3\n        /* \"#utility.yul\":5224:5258   */\n      gt\n        /* \"#utility.yul\":5221:5283   */\n      or\n        /* \"#utility.yul\":5218:5306   */\n      iszero\n      tag_177\n      jumpi\n        /* \"#utility.yul\":5286:5304   */\n      tag_178\n      tag_99\n      jump\t// in\n    tag_178:\n        /* \"#utility.yul\":5218:5306   */\n    tag_177:\n        /* \"#utility.yul\":5326:5336   */\n      dup1\n        /* \"#utility.yul\":5322:5324   */\n      0x40\n        /* \"#utility.yul\":5315:5337   */\n      mstore\n        /* \"#utility.yul\":5105:5343   */\n      pop\n        /* \"#utility.yul\":5062:5343   */\n      pop\n      pop\n      jump\t// out\n        /* \"#utility.yul\":5349:5478   */\n    tag_101:\n        /* \"#utility.yul\":5383:5389   */\n      0x00\n        /* \"#utility.yul\":5410:5430   */\n      tag_180\n      tag_94\n      jump\t// in\n    tag_180:\n        /* \"#utility.yul\":5400:5430   */\n      swap1\n      pop\n        /* \"#utility.yul\":5439:5472   */\n      tag_181\n        /* \"#utility.yul\":5467:5471   */\n      dup3\n        /* \"#utility.yul\":5459:5465   */\n      dup3\n        /* \"#utility.yul\":5439:5472   */\n      tag_100\n      jump\t// in\n    tag_181:\n        /* \"#utility.yul\":5349:5478   */\n      swap2\n      swap1\n      pop\n      jump\t// out\n        /* \"#utility.yul\":5484:5792   */\n    tag_102:\n        /* \"#utility.yul\":5546:5550   */\n      0x00\n        /* \"#utility.yul\":5636:5654   */\n      0xffffffffffffffff\n        /* \"#utility.yul\":5628:5634   */\n      dup3\n        /* \"#utility.yul\":5625:5655   */\n      gt\n        /* \"#utility.yul\":5622:5678   */\n      iszero\n      tag_183\n      jumpi\n        /* \"#utility.yul\":5658:5676   */\n      tag_184\n      tag_99\n      jump\t// in\n    tag_184:\n        /* \"#utility.yul\":5622:5678   */\n    tag_183:\n        /* \"#utility.yul\":5696:5725   */\n      tag_185\n        /* \"#utility.yul\":5718:5724   */\n      dup3\n        /* \"#utility.yul\":5696:5725   */\n      tag_86\n      jump\t// in\n    tag_185:\n        /* \"#utility.yul\":5688:5725   */\n      swap1\n      pop\n        /* \"#utility.yul\":5780:5784   */\n      0x20\n        /* \"#utility.yul\":5774:5778   */\n      dup2\n        /* \"#utility.yul\":5770:5785   */\n      add\n        /* \"#utility.yul\":5762:5785   */\n      swap1\n      pop\n        /* \"#utility.yul\":5484:5792   */\n      swap2\n      swap1\n      pop\n      jump\t// out\n        /* \"#utility.yul\":5798:5946   */\n    tag_103:\n        /* \"#utility.yul\":5896:5902   */\n      dup3\n        /* \"#utility.yul\":5891:5894   */\n      dup2\n        /* \"#utility.yul\":5886:5889   */\n      dup4\n        /* \"#utility.yul\":5873:5903   */\n      calldatacopy\n        /* \"#utility.yul\":5937:5938   */\n      0x00\n        /* \"#utility.yul\":5928:5934   */\n      dup4\n        /* \"#utility.yul\":5923:5926   */\n      dup4\n        /* \"#utility.yul\":5919:5935   */\n      add\n        /* \"#utility.yul\":5912:5939   */\n      mstore\n        /* \"#utility.yul\":5798:5946   */\n      pop\n      pop\n      pop\n      jump\t// out\n        /* \"#utility.yul\":5952:6377   */\n    tag_104:\n        /* \"#utility.yul\":6030:6035   */\n      0x00\n        /* \"#utility.yul\":6055:6121   */\n      tag_188\n        /* \"#utility.yul\":6071:6120   */\n      tag_189\n        /* \"#utility.yul\":6113:6119   */\n      dup5\n        /* \"#utility.yul\":6071:6120   */\n      tag_102\n      jump\t// in\n    tag_189:\n        /* \"#utility.yul\":6055:6121   */\n      tag_101\n      jump\t// in\n    tag_188:\n        /* \"#utility.yul\":6046:6121   */\n      swap1\n      pop\n        /* \"#utility.yul\":6144:6150   */\n      dup3\n        /* \"#utility.yul\":6137:6142   */\n      dup2\n        /* \"#utility.yul\":6130:6151   */\n      mstore\n        /* \"#utility.yul\":6182:6186   */\n      0x20\n        /* \"#utility.yul\":6175:6180   */\n      dup2\n        /* \"#utility.yul\":6171:6187   */\n      add\n        /* \"#utility.yul\":6220:6223   */\n      dup5\n        /* \"#utility.yul\":6211:6217   */\n      dup5\n        /* \"#utility.yul\":6206:6209   */\n      dup5\n        /* \"#utility.yul\":6202:6218   */\n      add\n        /* \"#utility.yul\":6199:6224   */\n      gt\n        /* \"#utility.yul\":6196:6308   */\n      iszero\n      tag_190\n      jumpi\n        /* \"#utility.yul\":6227:6306   */\n      tag_191\n      tag_98\n      jump\t// in\n    tag_191:\n        /* \"#utility.yul\":6196:6308   */\n    tag_190:\n        /* \"#utility.yul\":6317:6371   */\n      tag_192\n        /* \"#utility.yul\":6364:6370   */\n      dup5\n        /* \"#utility.yul\":6359:6362   */\n      dup3\n        /* \"#utility.yul\":6354:6357   */\n      dup6\n        /* \"#utility.yul\":6317:6371   */\n      tag_103\n      jump\t// in\n    tag_192:\n        /* \"#utility.yul\":6036:6377   */\n      pop\n        /* \"#utility.yul\":5952:6377   */\n      swap4\n      swap3\n      pop\n      pop\n      pop\n      jump\t// out\n        /* \"#utility.yul\":6397:6737   */\n    tag_105:\n        /* \"#utility.yul\":6453:6458   */\n      0x00\n        /* \"#utility.yul\":6502:6505   */\n      dup3\n        /* \"#utility.yul\":6495:6499   */\n      0x1f\n        /* \"#utility.yul\":6487:6493   */\n      dup4\n        /* \"#utility.yul\":6483:6500   */\n      add\n        /* \"#utility.yul\":6479:6506   */\n      slt\n        /* \"#utility.yul\":6469:6591   */\n      tag_194\n      jumpi\n        /* \"#utility.yul\":6510:6589   */\n      tag_195\n      tag_97\n      jump\t// in\n    tag_195:\n        /* \"#utility.yul\":6469:6591   */\n    tag_194:\n        /* \"#utility.yul\":6627:6633   */\n      dup2\n        /* \"#utility.yul\":6614:6634   */\n      calldataload\n        /* \"#utility.yul\":6652:6731   */\n      tag_196\n        /* \"#utility.yul\":6727:6730   */\n      dup5\n        /* \"#utility.yul\":6719:6725   */\n      dup3\n        /* \"#utility.yul\":6712:6716   */\n      0x20\n        /* \"#utility.yul\":6704:6710   */\n      dup7\n        /* \"#utility.yul\":6700:6717   */\n      add\n        /* \"#utility.yul\":6652:6731   */\n      tag_104\n      jump\t// in\n    tag_196:\n        /* \"#utility.yul\":6643:6731   */\n      swap2\n      pop\n        /* \"#utility.yul\":6459:6737   */\n      pop\n        /* \"#utility.yul\":6397:6737   */\n      swap3\n      swap2\n      pop\n      pop\n      jump\t// out\n        /* \"#utility.yul\":6743:7252   */\n    tag_15:\n        /* \"#utility.yul\":6812:6818   */\n      0x00\n        /* \"#utility.yul\":6861:6863   */\n      0x20\n        /* \"#utility.yul\":6849:6858   */\n      dup3\n        /* \"#utility.yul\":6840:6847   */\n      dup5\n        /* \"#utility.yul\":6836:6859   */\n      sub\n        /* \"#utility.yul\":6832:6864   */\n      slt\n        /* \"#utility.yul\":6829:6948   */\n      iszero\n      tag_198\n      jumpi\n        /* \"#utility.yul\":6867:6946   */\n      tag_199\n      tag_95\n      jump\t// in\n    tag_199:\n        /* \"#utility.yul\":6829:6948   */\n    tag_198:\n        /* \"#utility.yul\":7015:7016   */\n      0x00\n        /* \"#utility.yul\":7004:7013   */\n      dup3\n        /* \"#utility.yul\":7000:7017   */\n      add\n        /* \"#utility.yul\":6987:7018   */\n      calldataload\n        /* \"#utility.yul\":7045:7063   */\n      0xffffffffffffffff\n        /* \"#utility.yul\":7037:7043   */\n      dup2\n        /* \"#utility.yul\":7034:7064   */\n      gt\n        /* \"#utility.yul\":7031:7148   */\n      iszero\n      tag_200\n      jumpi\n        /* \"#utility.yul\":7067:7146   */\n      tag_201\n      tag_96\n      jump\t// in\n    tag_201:\n        /* \"#utility.yul\":7031:7148   */\n    tag_200:\n        /* \"#utility.yul\":7172:7235   */\n      tag_202\n        /* \"#utility.yul\":7227:7234   */\n      dup5\n        /* \"#utility.yul\":7218:7224   */\n      dup3\n        /* \"#utility.yul\":7207:7216   */\n      dup6\n        /* \"#utility.yul\":7203:7225   */\n      add\n        /* \"#utility.yul\":7172:7235   */\n      tag_105\n      jump\t// in\n    tag_202:\n        /* \"#utility.yul\":7162:7235   */\n      swap2\n      pop\n        /* \"#utility.yul\":6958:7245   */\n      pop\n        /* \"#utility.yul\":6743:7252   */\n      swap3\n      swap2\n      pop\n      pop\n      jump\t// out\n        /* \"#utility.yul\":7258:7335   */\n    tag_106:\n        /* \"#utility.yul\":7295:7302   */\n      0x00\n        /* \"#utility.yul\":7324:7329   */\n      dup2\n        /* \"#utility.yul\":7313:7329   */\n      swap1\n      pop\n        /* \"#utility.yul\":7258:7335   */\n      swap2\n      swap1\n      pop\n      jump\t// out\n        /* \"#utility.yul\":7341:7463   */\n    tag_107:\n        /* \"#utility.yul\":7414:7438   */\n      tag_205\n        /* \"#utility.yul\":7432:7437   */\n      dup2\n        /* \"#utility.yul\":7414:7438   */\n      tag_106\n      jump\t// in\n    tag_205:\n        /* \"#utility.yul\":7407:7412   */\n      dup2\n        /* \"#utility.yul\":7404:7439   */\n      eq\n        /* \"#utility.yul\":7394:7457   */\n      tag_206\n      jumpi\n        /* \"#utility.yul\":7453:7454   */\n      0x00\n        /* \"#utility.yul\":7450:7451   */\n      0x00\n        /* \"#utility.yul\":7443:7455   */\n      revert\n        /* \"#utility.yul\":7394:7457   */\n    tag_206:\n        /* \"#utility.yul\":7341:7463   */\n      pop\n      jump\t// out\n        /* \"#utility.yul\":7469:7608   */\n    tag_108:\n        /* \"#utility.yul\":7515:7520   */\n      0x00\n        /* \"#utility.yul\":7553:7559   */\n      dup2\n        /* \"#utility.yul\":7540:7560   */\n      calldataload\n        /* \"#utility.yul\":7531:7560   */\n      swap1\n      pop\n        /* \"#utility.yul\":7569:7602   */\n      tag_208\n        /* \"#utility.yul\":7596:7601   */\n      dup2\n        /* \"#utility.yul\":7569:7602   */\n      tag_107\n      jump\t// in\n    tag_208:\n        /* \"#utility.yul\":7469:7608   */\n      swap3\n      swap2\n      pop\n      pop\n      jump\t// out\n        /* \"#utility.yul\":7614:7943   */\n    tag_19:\n        /* \"#utility.yul\":7673:7679   */\n      0x00\n        /* \"#utility.yul\":7722:7724   */\n      0x20\n        /* \"#utility.yul\":7710:7719   */\n      dup3\n        /* \"#utility.yul\":7701:7708   */\n      dup5\n        /* \"#utility.yul\":7697:7720   */\n      sub\n        /* \"#utility.yul\":7693:7725   */\n      slt\n        /* \"#utility.yul\":7690:7809   */\n      iszero\n      tag_210\n      jumpi\n        /* \"#utility.yul\":7728:7807   */\n      tag_211\n      tag_95\n      jump\t// in\n    tag_211:\n        /* \"#utility.yul\":7690:7809   */\n    tag_210:\n        /* \"#utility.yul\":7848:7849   */\n      0x00\n        /* \"#utility.yul\":7873:7926   */\n      tag_212\n        /* \"#utility.yul\":7918:7925   */\n      dup5\n        /* \"#utility.yul\":7909:7915   */\n      dup3\n        /* \"#utility.yul\":7898:7907   */\n      dup6\n        /* \"#utility.yul\":7894:7916   */\n      add\n        /* \"#utility.yul\":7873:7926   */\n      tag_108\n      jump\t// in\n    tag_212:\n        /* \"#utility.yul\":7863:7926   */\n      swap2\n      pop\n        /* \"#utility.yul\":7819:7936   */\n      pop\n        /* \"#utility.yul\":7614:7943   */\n      swap3\n      swap2\n      pop\n      pop\n      jump\t// out\n        /* \"#utility.yul\":8009:8613   */\n    tag_109:\n        /* \"#utility.yul\":8124:8127   */\n      0x00\n        /* \"#utility.yul\":8160:8164   */\n      0x40\n        /* \"#utility.yul\":8155:8158   */\n      dup4\n        /* \"#utility.yul\":8151:8165   */\n      add\n        /* \"#utility.yul\":8247:8251   */\n      0x00\n        /* \"#utility.yul\":8240:8245   */\n      dup4\n        /* \"#utility.yul\":8236:8252   */\n      add\n        /* \"#utility.yul\":8230:8253   */\n      mload\n        /* \"#utility.yul\":8300:8303   */\n      dup5\n        /* \"#utility.yul\":8294:8298   */\n      dup3\n        /* \"#utility.yul\":8290:8304   */\n      sub\n        /* \"#utility.yul\":8283:8287   */\n      0x00\n        /* \"#utility.yul\":8278:8281   */\n      dup7\n        /* \"#utility.yul\":8274:8288   */\n      add\n        /* \"#utility.yul\":8267:8305   */\n      mstore\n        /* \"#utility.yul\":8326:8399   */\n      tag_214\n        /* \"#utility.yul\":8394:8398   */\n      dup3\n        /* \"#utility.yul\":8380:8392   */\n      dup3\n        /* \"#utility.yul\":8326:8399   */\n      tag_87\n      jump\t// in\n    tag_214:\n        /* \"#utility.yul\":8318:8399   */\n      swap2\n      pop\n        /* \"#utility.yul\":8175:8410   */\n      pop\n        /* \"#utility.yul\":8500:8504   */\n      0x20\n        /* \"#utility.yul\":8493:8498   */\n      dup4\n        /* \"#utility.yul\":8489:8505   */\n      add\n        /* \"#utility.yul\":8483:8506   */\n      mload\n        /* \"#utility.yul\":8519:8576   */\n      tag_215\n        /* \"#utility.yul\":8570:8574   */\n      0x20\n        /* \"#utility.yul\":8565:8568   */\n      dup7\n        /* \"#utility.yul\":8561:8575   */\n      add\n        /* \"#utility.yul\":8547:8559   */\n      dup3\n        /* \"#utility.yul\":8519:8576   */\n      tag_89\n      jump\t// in\n    tag_215:\n        /* \"#utility.yul\":8420:8586   */\n      pop\n        /* \"#utility.yul\":8603:8607   */\n      dup1\n        /* \"#utility.yul\":8596:8607   */\n      swap2\n      pop\n        /* \"#utility.yul\":8129:8613   */\n      pop\n        /* \"#utility.yul\":8009:8613   */\n      swap3\n      swap2\n      pop\n      pop\n      jump\t// out\n        /* \"#utility.yul\":8619:8984   */\n    tag_22:\n        /* \"#utility.yul\":8758:8762   */\n      0x00\n        /* \"#utility.yul\":8796:8798   */\n      0x20\n        /* \"#utility.yul\":8785:8794   */\n      dup3\n        /* \"#utility.yul\":8781:8799   */\n      add\n        /* \"#utility.yul\":8773:8799   */\n      swap1\n      pop\n        /* \"#utility.yul\":8845:8854   */\n      dup2\n        /* \"#utility.yul\":8839:8843   */\n      dup2\n        /* \"#utility.yul\":8835:8855   */\n      sub\n        /* \"#utility.yul\":8831:8832   */\n      0x00\n        /* \"#utility.yul\":8820:8829   */\n      dup4\n        /* \"#utility.yul\":8816:8833   */\n      add\n        /* \"#utility.yul\":8809:8856   */\n      mstore\n        /* \"#utility.yul\":8873:8977   */\n      tag_217\n        /* \"#utility.yul\":8972:8976   */\n      dup2\n        /* \"#utility.yul\":8963:8969   */\n      dup5\n        /* \"#utility.yul\":8873:8977   */\n      tag_109\n      jump\t// in\n    tag_217:\n        /* \"#utility.yul\":8865:8977   */\n      swap1\n      pop\n        /* \"#utility.yul\":8619:8984   */\n      swap3\n      swap2\n      pop\n      pop\n      jump\t// out\n        /* \"#utility.yul\":8990:9159   */\n    tag_110:\n        /* \"#utility.yul\":9074:9085   */\n      0x00\n        /* \"#utility.yul\":9108:9114   */\n      dup3\n        /* \"#utility.yul\":9103:9106   */\n      dup3\n        /* \"#utility.yul\":9096:9115   */\n      mstore\n        /* \"#utility.yul\":9148:9152   */\n      0x20\n        /* \"#utility.yul\":9143:9146   */\n      dup3\n        /* \"#utility.yul\":9139:9153   */\n      add\n        /* \"#utility.yul\":9124:9153   */\n      swap1\n      pop\n        /* \"#utility.yul\":8990:9159   */\n      swap3\n      swap2\n      pop\n      pop\n      jump\t// out\n        /* \"#utility.yul\":9165:9542   */\n    tag_111:\n        /* \"#utility.yul\":9253:9256   */\n      0x00\n        /* \"#utility.yul\":9281:9320   */\n      tag_220\n        /* \"#utility.yul\":9314:9319   */\n      dup3\n        /* \"#utility.yul\":9281:9320   */\n      tag_83\n      jump\t// in\n    tag_220:\n        /* \"#utility.yul\":9336:9407   */\n      tag_221\n        /* \"#utility.yul\":9400:9406   */\n      dup2\n        /* \"#utility.yul\":9395:9398   */\n      dup6\n        /* \"#utility.yul\":9336:9407   */\n      tag_110\n      jump\t// in\n    tag_221:\n        /* \"#utility.yul\":9329:9407   */\n      swap4\n      pop\n        /* \"#utility.yul\":9416:9481   */\n      tag_222\n        /* \"#utility.yul\":9474:9480   */\n      dup2\n        /* \"#utility.yul\":9469:9472   */\n      dup6\n        /* \"#utility.yul\":9462:9466   */\n      0x20\n        /* \"#utility.yul\":9455:9460   */\n      dup7\n        /* \"#utility.yul\":9451:9467   */\n      add\n        /* \"#utility.yul\":9416:9481   */\n      tag_85\n      jump\t// in\n    tag_222:\n        /* \"#utility.yul\":9506:9535   */\n      tag_223\n        /* \"#utility.yul\":9528:9534   */\n      dup2\n        /* \"#utility.yul\":9506:9535   */\n      tag_86\n      jump\t// in\n    tag_223:\n        /* \"#utility.yul\":9501:9504   */\n      dup5\n        /* \"#utility.yul\":9497:9536   */\n      add\n        /* \"#utility.yul\":9490:9536   */\n      swap2\n      pop\n        /* \"#utility.yul\":9257:9542   */\n      pop\n        /* \"#utility.yul\":9165:9542   */\n      swap3\n      swap2\n      pop\n      pop\n      jump\t// out\n        /* \"#utility.yul\":9548:9657   */\n    tag_112:\n        /* \"#utility.yul\":9629:9650   */\n      tag_225\n        /* \"#utility.yul\":9644:9649   */\n      dup2\n        /* \"#utility.yul\":9629:9650   */\n      tag_88\n      jump\t// in\n    tag_225:\n        /* \"#utility.yul\":9624:9627   */\n      dup3\n        /* \"#utility.yul\":9617:9651   */\n      mstore\n        /* \"#utility.yul\":9548:9657   */\n      pop\n      pop\n      jump\t// out\n        /* \"#utility.yul\":9663:10074   */\n    tag_27:\n        /* \"#utility.yul\":9798:9802   */\n      0x00\n        /* \"#utility.yul\":9836:9838   */\n      0x40\n        /* \"#utility.yul\":9825:9834   */\n      dup3\n        /* \"#utility.yul\":9821:9839   */\n      add\n        /* \"#utility.yul\":9813:9839   */\n      swap1\n      pop\n        /* \"#utility.yul\":9885:9894   */\n      dup2\n        /* \"#utility.yul\":9879:9883   */\n      dup2\n        /* \"#utility.yul\":9875:9895   */\n      sub\n        /* \"#utility.yul\":9871:9872   */\n      0x00\n        /* \"#utility.yul\":9860:9869   */\n      dup4\n        /* \"#utility.yul\":9856:9873   */\n      add\n        /* \"#utility.yul\":9849:9896   */\n      mstore\n        /* \"#utility.yul\":9913:9991   */\n      tag_227\n        /* \"#utility.yul\":9986:9990   */\n      dup2\n        /* \"#utility.yul\":9977:9983   */\n      dup6\n        /* \"#utility.yul\":9913:9991   */\n      tag_111\n      jump\t// in\n    tag_227:\n        /* \"#utility.yul\":9905:9991   */\n      swap1\n      pop\n        /* \"#utility.yul\":10001:10067   */\n      tag_228\n        /* \"#utility.yul\":10063:10065   */\n      0x20\n        /* \"#utility.yul\":10052:10061   */\n      dup4\n        /* \"#utility.yul\":10048:10066   */\n      add\n        /* \"#utility.yul\":10039:10045   */\n      dup5\n        /* \"#utility.yul\":10001:10067   */\n      tag_112\n      jump\t// in\n    tag_228:\n        /* \"#utility.yul\":9663:10074   */\n      swap4\n      swap3\n      pop\n      pop\n      pop\n      jump\t// out\n        /* \"#utility.yul\":10080:10206   */\n    tag_113:\n        /* \"#utility.yul\":10117:10124   */\n      0x00\n        /* \"#utility.yul\":10157:10199   */\n      0xffffffffffffffffffffffffffffffffffffffff\n        /* \"#utility.yul\":10150:10155   */\n      dup3\n        /* \"#utility.yul\":10146:10200   */\n      and\n        /* \"#utility.yul\":10135:10200   */\n      swap1\n      pop\n        /* \"#utility.yul\":10080:10206   */\n      swap2\n      swap1\n      pop\n      jump\t// out\n        /* \"#utility.yul\":10212:10308   */\n    tag_114:\n        /* \"#utility.yul\":10249:10256   */\n      0x00\n        /* \"#utility.yul\":10278:10302   */\n      tag_231\n        /* \"#utility.yul\":10296:10301   */\n      dup3\n        /* \"#utility.yul\":10278:10302   */\n      tag_113\n      jump\t// in\n    tag_231:\n        /* \"#utility.yul\":10267:10302   */\n      swap1\n      pop\n        /* \"#utility.yul\":10212:10308   */\n      swap2\n      swap1\n      pop\n      jump\t// out\n        /* \"#utility.yul\":10314:10432   */\n    tag_115:\n        /* \"#utility.yul\":10401:10425   */\n      tag_233\n        /* \"#utility.yul\":10419:10424   */\n      dup2\n        /* \"#utility.yul\":10401:10425   */\n      tag_114\n      jump\t// in\n    tag_233:\n        /* \"#utility.yul\":10396:10399   */\n      dup3\n        /* \"#utility.yul\":10389:10426   */\n      mstore\n        /* \"#utility.yul\":10314:10432   */\n      pop\n      pop\n      jump\t// out\n        /* \"#utility.yul\":10438:10660   */\n    tag_31:\n        /* \"#utility.yul\":10531:10535   */\n      0x00\n        /* \"#utility.yul\":10569:10571   */\n      0x20\n        /* \"#utility.yul\":10558:10567   */\n      dup3\n        /* \"#utility.yul\":10554:10572   */\n      add\n        /* \"#utility.yul\":10546:10572   */\n      swap1\n      pop\n        /* \"#utility.yul\":10582:10653   */\n      tag_235\n        /* \"#utility.yul\":10650:10651   */\n      0x00\n        /* \"#utility.yul\":10639:10648   */\n      dup4\n        /* \"#utility.yul\":10635:10652   */\n      add\n        /* \"#utility.yul\":10626:10632   */\n      dup5\n        /* \"#utility.yul\":10582:10653   */\n      tag_115\n      jump\t// in\n    tag_235:\n        /* \"#utility.yul\":10438:10660   */\n      swap3\n      swap2\n      pop\n      pop\n      jump\t// out\n        /* \"#utility.yul\":10666:10846   */\n    tag_116:\n        /* \"#utility.yul\":10714:10791   */\n      0x4e487b7100000000000000000000000000000000000000000000000000000000\n        /* \"#utility.yul\":10711:10712   */\n      0x00\n        /* \"#utility.yul\":10704:10792   */\n      mstore\n        /* \"#utility.yul\":10811:10815   */\n      0x22\n        /* \"#utility.yul\":10808:10809   */\n      0x04\n        /* \"#utility.yul\":10801:10816   */\n      mstore\n        /* \"#utility.yul\":10835:10839   */\n      0x24\n        /* \"#utility.yul\":10832:10833   */\n      0x00\n        /* \"#utility.yul\":10825:10840   */\n      revert\n        /* \"#utility.yul\":10852:11172   */\n    tag_40:\n        /* \"#utility.yul\":10896:10902   */\n      0x00\n        /* \"#utility.yul\":10933:10934   */\n      0x02\n        /* \"#utility.yul\":10927:10931   */\n      dup3\n        /* \"#utility.yul\":10923:10935   */\n      div\n        /* \"#utility.yul\":10913:10935   */\n      swap1\n      pop\n        /* \"#utility.yul\":10980:10981   */\n      0x01\n        /* \"#utility.yul\":10974:10978   */\n      dup3\n        /* \"#utility.yul\":10970:10982   */\n      and\n        /* \"#utility.yul\":11001:11019   */\n      dup1\n        /* \"#utility.yul\":10991:11072   */\n      tag_238\n      jumpi\n        /* \"#utility.yul\":11057:11061   */\n      0x7f\n        /* \"#utility.yul\":11049:11055   */\n      dup3\n        /* \"#utility.yul\":11045:11062   */\n      and\n        /* \"#utility.yul\":11035:11062   */\n      swap2\n      pop\n        /* \"#utility.yul\":10991:11072   */\n    tag_238:\n        /* \"#utility.yul\":11119:11121   */\n      0x20\n        /* \"#utility.yul\":11111:11117   */\n      dup3\n        /* \"#utility.yul\":11108:11122   */\n      lt\n        /* \"#utility.yul\":11088:11106   */\n      dup2\n        /* \"#utility.yul\":11085:11123   */\n      sub\n        /* \"#utility.yul\":11082:11166   */\n      tag_239\n      jumpi\n        /* \"#utility.yul\":11138:11156   */\n      tag_240\n      tag_116\n      jump\t// in\n    tag_240:\n        /* \"#utility.yul\":11082:11166   */\n    tag_239:\n        /* \"#utility.yul\":10903:11172   */\n      pop\n        /* \"#utility.yul\":10852:11172   */\n      swap2\n      swap1\n      pop\n      jump\t// out\n        /* \"#utility.yul\":11178:11319   */\n    tag_117:\n        /* \"#utility.yul\":11227:11231   */\n      0x00\n        /* \"#utility.yul\":11250:11253   */\n      dup2\n        /* \"#utility.yul\":11242:11253   */\n      swap1\n      pop\n        /* \"#utility.yul\":11273:11276   */\n      dup2\n        /* \"#utility.yul\":11270:11271   */\n      0x00\n        /* \"#utility.yul\":11263:11277   */\n      mstore\n        /* \"#utility.yul\":11307:11311   */\n      0x20\n        /* \"#utility.yul\":11304:11305   */\n      0x00\n        /* \"#utility.yul\":11294:11312   */\n      keccak256\n        /* \"#utility.yul\":11286:11312   */\n      swap1\n      pop\n        /* \"#utility.yul\":11178:11319   */\n      swap2\n      swap1\n      pop\n      jump\t// out\n        /* \"#utility.yul\":11325:11418   */\n    tag_118:\n        /* \"#utility.yul\":11362:11368   */\n      0x00\n        /* \"#utility.yul\":11409:11411   */\n      0x20\n        /* \"#utility.yul\":11404:11406   */\n      0x1f\n        /* \"#utility.yul\":11397:11402   */\n      dup4\n        /* \"#utility.yul\":11393:11407   */\n      add\n        /* \"#utility.yul\":11389:11412   */\n      div\n        /* \"#utility.yul\":11379:11412   */\n      swap1\n      pop\n        /* \"#utility.yul\":11325:11418   */\n      swap2\n      swap1\n      pop\n      jump\t// out\n        /* \"#utility.yul\":11424:11531   */\n    tag_119:\n        /* \"#utility.yul\":11468:11476   */\n      0x00\n        /* \"#utility.yul\":11518:11523   */\n      dup3\n        /* \"#utility.yul\":11512:11516   */\n      dup3\n        /* \"#utility.yul\":11508:11524   */\n      shl\n        /* \"#utility.yul\":11487:11524   */\n      swap1\n      pop\n        /* \"#utility.yul\":11424:11531   */\n      swap3\n      swap2\n      pop\n      pop\n      jump\t// out\n        /* \"#utility.yul\":11537:11930   */\n    tag_120:\n        /* \"#utility.yul\":11606:11612   */\n      0x00\n        /* \"#utility.yul\":11656:11657   */\n      0x08\n        /* \"#utility.yul\":11644:11654   */\n      dup4\n        /* \"#utility.yul\":11640:11658   */\n      mul\n        /* \"#utility.yul\":11679:11776   */\n      tag_245\n        /* \"#utility.yul\":11709:11775   */\n      0xffffffffffffffffffffffffffffffffffffffffffffffffffffffffffffffff\n        /* \"#utility.yul\":11698:11707   */\n      dup3\n        /* \"#utility.yul\":11679:11776   */\n      tag_119\n      jump\t// in\n    tag_245:\n        /* \"#utility.yul\":11797:11836   */\n      tag_246\n        /* \"#utility.yul\":11827:11835   */\n      dup7\n        /* \"#utility.yul\":11816:11825   */\n      dup4\n        /* \"#utility.yul\":11797:11836   */\n      tag_119\n      jump\t// in\n    tag_246:\n        /* \"#utility.yul\":11785:11836   */\n      swap6\n      pop\n        /* \"#utility.yul\":11869:11873   */\n      dup1\n        /* \"#utility.yul\":11865:11874   */\n      not\n        /* \"#utility.yul\":11858:11863   */\n      dup5\n        /* \"#utility.yul\":11854:11875   */\n      and\n        /* \"#utility.yul\":11845:11875   */\n      swap4\n      pop\n        /* \"#utility.yul\":11918:11922   */\n      dup1\n        /* \"#utility.yul\":11908:11916   */\n      dup7\n        /* \"#utility.yul\":11904:11923   */\n      and\n        /* \"#utility.yul\":11897:11902   */\n      dup5\n        /* \"#utility.yul\":11894:11924   */\n      or\n        /* \"#utility.yul\":11884:11924   */\n      swap3\n      pop\n        /* \"#utility.yul\":11613:11930   */\n      pop\n      pop\n        /* \"#utility.yul\":11537:11930   */\n      swap4\n      swap3\n      pop\n      pop\n      pop\n      jump\t// out\n        /* \"#utility.yul\":11936:11996   */\n    tag_121:\n        /* \"#utility.yul\":11964:11967   */\n      0x00\n        /* \"#utility.yul\":11985:11990   */\n      dup2\n        /* \"#utility.yul\":11978:11990   */\n      swap1\n      pop\n        /* \"#utility.yul\":11936:11996   */\n      swap2\n      swap1\n      pop\n      jump\t// out\n        /* \"#utility.yul\":12002:12144   */\n    tag_122:\n        /* \"#utility.yul\":12052:12061   */\n      0x00\n        /* \"#utility.yul\":12085:12138   */\n      tag_249\n        /* \"#utility.yul\":12103:12137   */\n      tag_250\n        /* \"#utility.yul\":12112:12136   */\n      tag_251\n        /* \"#utility.yul\":12130:12135   */\n      dup5\n        /* \"#utility.yul\":12112:12136   */\n      tag_106\n      jump\t// in\n    tag_251:\n        /* \"#utility.yul\":12103:12137   */\n      tag_121\n      jump\t// in\n    tag_250:\n        /* \"#utility.yul\":12085:12138   */\n      tag_106\n      jump\t// in\n    tag_249:\n        /* \"#utility.yul\":12072:12138   */\n      swap1\n      pop\n        /* \"#utility.yul\":12002:12144   */\n      swap2\n      swap1\n      pop\n      jump\t// out\n        /* \"#utility.yul\":12150:12225   */\n    tag_123:\n        /* \"#utility.yul\":12193:12196   */\n      0x00\n        /* \"#utility.yul\":12214:12219   */\n      dup2\n        /* \"#utility.yul\":12207:12219   */\n      swap1\n      pop\n        /* \"#utility.yul\":12150:12225   */\n      swap2\n      swap1\n      pop\n      jump\t// out\n        /* \"#utility.yul\":12231:12500   */\n    tag_124:\n        /* \"#utility.yul\":12341:12380   */\n      tag_254\n        /* \"#utility.yul\":12372:12379   */\n      dup4\n        /* \"#utility.yul\":12341:12380   */\n      tag_122\n      jump\t// in\n    tag_254:\n        /* \"#utility.yul\":12402:12493   */\n      tag_255\n        /* \"#utility.yul\":12451:12492   */\n      tag_256\n        /* \"#utility.yul\":12475:12491   */\n      dup3\n        /* \"#utility.yul\":12451:12492   */\n      tag_123\n      jump\t// in\n    tag_256:\n        /* \"#utility.yul\":12443:12449   */\n      dup5\n        /* \"#utility.yul\":12436:12440   */\n      dup5\n        /* \"#utility.yul\":12430:12441   */\n      sload\n        /* \"#utility.yul\":12402:12493   */\n      tag_120\n      jump\t// in\n    tag_255:\n        /* \"#utility.yul\":12396:12400   */\n      dup3\n        /* \"#utility.yul\":12389:12494   */\n      sstore\n        /* \"#utility.yul\":12307:12500   */\n      pop\n        /* \"#utility.yul\":12231:12500   */\n      pop\n      pop\n      pop\n      jump\t// out\n        /* \"#utility.yul\":12506:12579   */\n    tag_125:\n        /* \"#utility.yul\":12551:12554   */\n      0x00\n        /* \"#utility.yul\":12572:12573   */\n      0x00\n        /* \"#utility.yul\":12565:12573   */\n      swap1\n      pop\n        /* \"#utility.yul\":12506:12579   */\n      swap1\n      jump\t// out\n        /* \"#utility.yul\":12585:12774   */\n    tag_126:\n        /* \"#utility.yul\":12662:12694   */\n      tag_259\n      tag_125\n      jump\t// in\n    tag_259:\n        /* \"#utility.yul\":12703:12768   */\n      tag_260\n        /* \"#utility.yul\":12761:12767   */\n      dup2\n        /* \"#utility.yul\":12753:12759   */\n      dup5\n        /* \"#utility.yul\":12747:12751   */\n      dup5\n        /* \"#utility.yul\":12703:12768   */\n      tag_124\n      jump\t// in\n    tag_260:\n        /* \"#utility.yul\":12638:12774   */\n      pop\n        /* \"#utility.yul\":12585:12774   */\n      pop\n      pop\n      jump\t// out\n        /* \"#utility.yul\":12780:12966   */\n    tag_127:\n        /* \"#utility.yul\":12840:12960   */\n    tag_262:\n        /* \"#utility.yul\":12857:12860   */\n      dup2\n        /* \"#utility.yul\":12850:12855   */\n      dup2\n        /* \"#utility.yul\":12847:12861   */\n      lt\n        /* \"#utility.yul\":12840:12960   */\n      iszero\n      tag_264\n      jumpi\n        /* \"#utility.yul\":12911:12950   */\n      tag_265\n        /* \"#utility.yul\":12948:12949   */\n      0x00\n        /* \"#utility.yul\":12941:12946   */\n      dup3\n        /* \"#utility.yul\":12911:12950   */\n      tag_126\n      jump\t// in\n    tag_265:\n        /* \"#utility.yul\":12884:12885   */\n      0x01\n        /* \"#utility.yul\":12877:12882   */\n      dup2\n        /* \"#utility.yul\":12873:12886   */\n      add\n        /* \"#utility.yul\":12864:12886   */\n      swap1\n      pop\n        /* \"#utility.yul\":12840:12960   */\n      jump(tag_262)\n    tag_264:\n        /* \"#utility.yul\":12780:12966   */\n      pop\n      pop\n      jump\t// out\n        /* \"#utility.yul\":12972:13515   */\n    tag_128:\n        /* \"#utility.yul\":13073:13075   */\n      0x1f\n        /* \"#utility.yul\":13068:13071   */\n      dup3\n        /* \"#utility.yul\":13065:13076   */\n      gt\n        /* \"#utility.yul\":13062:13508   */\n      iszero\n      tag_267\n      jumpi\n        /* \"#utility.yul\":13107:13145   */\n      tag_268\n        /* \"#utility.yul\":13139:13144   */\n      dup2\n        /* \"#utility.yul\":13107:13145   */\n      tag_117\n      jump\t// in\n    tag_268:\n        /* \"#utility.yul\":13191:13220   */\n      tag_269\n        /* \"#utility.yul\":13209:13219   */\n      dup5\n        /* \"#utility.yul\":13191:13220   */\n      tag_118\n      jump\t// in\n    tag_269:\n        /* \"#utility.yul\":13181:13189   */\n      dup2\n        /* \"#utility.yul\":13177:13221   */\n      add\n        /* \"#utility.yul\":13374:13376   */\n      0x20\n        /* \"#utility.yul\":13362:13372   */\n      dup6\n        /* \"#utility.yul\":13359:13377   */\n      lt\n        /* \"#utility.yul\":13356:13405   */\n      iszero\n      tag_270\n      jumpi\n        /* \"#utility.yul\":13395:13403   */\n      dup2\n        /* \"#utility.yul\":13380:13403   */\n      swap1\n      pop\n        /* \"#utility.yul\":13356:13405   */\n    tag_270:\n        /* \"#utility.yul\":13418:13498   */\n      tag_271\n        /* \"#utility.yul\":13474:13496   */\n      tag_272\n        /* \"#utility.yul\":13492:13495   */\n      dup6\n        /* \"#utility.yul\":13474:13496   */\n      tag_118\n      jump\t// in\n    tag_272:\n        /* \"#utility.yul\":13464:13472   */\n      dup4\n        /* \"#utility.yul\":13460:13497   */\n      add\n        /* \"#utility.yul\":13447:13458   */\n      dup3\n        /* \"#utility.yul\":13418:13498   */\n      tag_127\n      jump\t// in\n    tag_271:\n        /* \"#utility.yul\":13077:13508   */\n      pop\n      pop\n        /* \"#utility.yul\":13062:13508   */\n    tag_267:\n        /* \"#utility.yul\":12972:13515   */\n      pop\n      pop\n      pop\n      jump\t// out\n        /* \"#utility.yul\":13521:13638   */\n    tag_129:\n        /* \"#utility.yul\":13575:13583   */\n      0x00\n        /* \"#utility.yul\":13625:13630   */\n      dup3\n        /* \"#utility.yul\":13619:13623   */\n      dup3\n        /* \"#utility.yul\":13615:13631   */\n      shr\n        /* \"#utility.yul\":13594:13631   */\n      swap1\n      pop\n        /* \"#utility.yul\":13521:13638   */\n      swap3\n      swap2\n      pop\n      pop\n      jump\t// out\n        /* \"#utility.yul\":13644:13813   */\n    tag_130:\n        /* \"#utility.yul\":13688:13694   */\n      0x00\n        /* \"#utility.yul\":13721:13772   */\n      tag_275\n        /* \"#utility.yul\":13769:13770   */\n      0x00\n        /* \"#utility.yul\":13765:13771   */\n      not\n        /* \"#utility.yul\":13757:13762   */\n      dup5\n        /* \"#utility.yul\":13754:13755   */\n      0x08\n        /* \"#utility.yul\":13750:13763   */\n      mul\n        /* \"#utility.yul\":13721:13772   */\n      tag_129\n      jump\t// in\n    tag_275:\n        /* \"#utility.yul\":13717:13773   */\n      not\n        /* \"#utility.yul\":13802:13806   */\n      dup1\n        /* \"#utility.yul\":13796:13800   */\n      dup4\n        /* \"#utility.yul\":13792:13807   */\n      and\n        /* \"#utility.yul\":13782:13807   */\n      swap2\n      pop\n        /* \"#utility.yul\":13695:13813   */\n      pop\n        /* \"#utility.yul\":13644:13813   */\n      swap3\n      swap2\n      pop\n      pop\n      jump\t// out\n        /* \"#utility.yul\":13818:14113   */\n    tag_131:\n        /* \"#utility.yul\":13894:13898   */\n      0x00\n        /* \"#utility.yul\":14040:14069   */\n      tag_277\n        /* \"#utility.yul\":14065:14068   */\n      dup4\n        /* \"#utility.yul\":14059:14063   */\n      dup4\n        /* \"#utility.yul\":14040:14069   */\n      tag_130\n      jump\t// in\n    tag_277:\n        /* \"#utility.yul\":14032:14069   */\n      swap2\n      pop\n        /* \"#utility.yul\":14102:14105   */\n      dup3\n        /* \"#utility.yul\":14099:14100   */\n      0x02\n        /* \"#utility.yul\":14095:14106   */\n      mul\n        /* \"#utility.yul\":14089:14093   */\n      dup3\n        /* \"#utility.yul\":14086:14107   */\n      or\n        /* \"#utility.yul\":14078:14107   */\n      swap1\n      pop\n        /* \"#utility.yul\":13818:14113   */\n      swap3\n      swap2\n      pop\n      pop\n      jump\t// out\n        /* \"#utility.yul\":14118:15513   */\n    tag_48:\n        /* \"#utility.yul\":14235:14272   */\n      tag_279\n        /* \"#utility.yul\":14268:14271   */\n      dup3\n        /* \"#utility.yul\":14235:14272   */\n      tag_83\n      jump\t// in\n    tag_279:\n        /* \"#utility.yul\":14337:14355   */\n      0xffffffffffffffff\n        /* \"#utility.yul\":14329:14335   */\n      dup2\n        /* \"#utility.yul\":14326:14356   */\n      gt\n        /* \"#utility.yul\":14323:14379   */\n      iszero\n      tag_280\n      jumpi\n        /* \"#utility.yul\":14359:14377   */\n      tag_281\n      tag_99\n      jump\t// in\n    tag_281:\n        /* \"#utility.yul\":14323:14379   */\n    tag_280:\n        /* \"#utility.yul\":14403:14441   */\n      tag_282\n        /* \"#utility.yul\":14435:14439   */\n      dup3\n        /* \"#utility.yul\":14429:14440   */\n      sload\n        /* \"#utility.yul\":14403:14441   */\n      tag_40\n      jump\t// in\n    tag_282:\n        /* \"#utility.yul\":14488:14555   */\n      tag_283\n        /* \"#utility.yul\":14548:14554   */\n      dup3\n        /* \"#utility.yul\":14540:14546   */\n      dup3\n        /* \"#utility.yul\":14534:14538   */\n      dup6\n        /* \"#utility.yul\":14488:14555   */\n      tag_128\n      jump\t// in\n    tag_283:\n        /* \"#utility.yul\":14582:14583   */\n      0x00\n        /* \"#utility.yul\":14606:14610   */\n      0x20\n        /* \"#utility.yul\":14593:14610   */\n      swap1\n      pop\n        /* \"#utility.yul\":14638:14640   */\n      0x1f\n        /* \"#utility.yul\":14630:14636   */\n      dup4\n        /* \"#utility.yul\":14627:14641   */\n      gt\n        /* \"#utility.yul\":14655:14656   */\n      0x01\n        /* \"#utility.yul\":14650:15268   */\n      dup2\n      eq\n      tag_285\n      jumpi\n        /* \"#utility.yul\":15312:15313   */\n      0x00\n        /* \"#utility.yul\":15329:15335   */\n      dup5\n        /* \"#utility.yul\":15326:15403   */\n      iszero\n      tag_286\n      jumpi\n        /* \"#utility.yul\":15378:15387   */\n      dup3\n        /* \"#utility.yul\":15373:15376   */\n      dup8\n        /* \"#utility.yul\":15369:15388   */\n      add\n        /* \"#utility.yul\":15363:15389   */\n      mload\n        /* \"#utility.yul\":15354:15389   */\n      swap1\n      pop\n        /* \"#utility.yul\":15326:15403   */\n    tag_286:\n        /* \"#utility.yul\":15429:15496   */\n      tag_287\n        /* \"#utility.yul\":15489:15495   */\n      dup6\n        /* \"#utility.yul\":15482:15487   */\n      dup3\n        /* \"#utility.yul\":15429:15496   */\n      tag_131\n      jump\t// in\n    tag_287:\n        /* \"#utility.yul\":15423:15427   */\n      dup7\n        /* \"#utility.yul\":15416:15497   */\n      sstore\n        /* \"#utility.yul\":15285:15507   */\n      pop\n        /* \"#utility.yul\":14620:15507   */\n      jump(tag_284)\n        /* \"#utility.yul\":14650:15268   */\n    tag_285:\n        /* \"#utility.yul\":14702:14706   */\n      0x1f\n        /* \"#utility.yul\":14698:14707   */\n      not\n        /* \"#utility.yul\":14690:14696   */\n      dup5\n        /* \"#utility.yul\":14686:14708   */\n      and\n        /* \"#utility.yul\":14736:14773   */\n      tag_288\n        /* \"#utility.yul\":14768:14772   */\n      dup7\n        /* \"#utility.yul\":14736:14773   */\n      tag_117\n      jump\t// in\n    tag_288:\n        /* \"#utility.yul\":14795:14796   */\n      0x00\n        /* \"#utility.yul\":14809:15017   */\n    tag_289:\n        /* \"#utility.yul\":14823:14830   */\n      dup3\n        /* \"#utility.yul\":14820:14821   */\n      dup2\n        /* \"#utility.yul\":14817:14831   */\n      lt\n        /* \"#utility.yul\":14809:15017   */\n      iszero\n      tag_291\n      jumpi\n        /* \"#utility.yul\":14902:14911   */\n      dup5\n        /* \"#utility.yul\":14897:14900   */\n      dup10\n        /* \"#utility.yul\":14893:14912   */\n      add\n        /* \"#utility.yul\":14887:14913   */\n      mload\n        /* \"#utility.yul\":14879:14885   */\n      dup3\n        /* \"#utility.yul\":14872:14914   */\n      sstore\n        /* \"#utility.yul\":14953:14954   */\n      0x01\n        /* \"#utility.yul\":14945:14951   */\n      dup3\n        /* \"#utility.yul\":14941:14955   */\n      add\n        /* \"#utility.yul\":14931:14955   */\n      swap2\n      pop\n        /* \"#utility.yul\":15000:15002   */\n      0x20\n        /* \"#utility.yul\":14989:14998   */\n      dup6\n        /* \"#utility.yul\":14985:15003   */\n      add\n        /* \"#utility.yul\":14972:15003   */\n      swap5\n      pop\n        /* \"#utility.yul\":14846:14850   */\n      0x20\n        /* \"#utility.yul\":14843:14844   */\n      dup2\n        /* \"#utility.yul\":14839:14851   */\n      add\n        /* \"#utility.yul\":14834:14851   */\n      swap1\n      pop\n        /* \"#utility.yul\":14809:15017   */\n      jump(tag_289)\n    tag_291:\n        /* \"#utility.yul\":15045:15051   */\n      dup7\n        /* \"#utility.yul\":15036:15043   */\n      dup4\n        /* \"#utility.yul\":15033:15052   */\n      lt\n        /* \"#utility.yul\":15030:15209   */\n      iszero\n      tag_292\n      jumpi\n        /* \"#utility.yul\":15103:15112   */\n      dup5\n        /* \"#utility.yul\":15098:15101   */\n      dup10\n        /* \"#utility.yul\":15094:15113   */\n      add\n        /* \"#utility.yul\":15088:15114   */\n      mload\n        /* \"#utility.yul\":15146:15194   */\n      tag_293\n        /* \"#utility.yul\":15188:15192   */\n      0x1f\n        /* \"#utility.yul\":15180:15186   */\n      dup10\n        /* \"#utility.yul\":15176:15193   */\n      and\n        /* \"#utility.yul\":15165:15174   */\n      dup3\n        /* \"#utility.yul\":15146:15194   */\n      tag_130\n      jump\t// in\n    tag_293:\n        /* \"#utility.yul\":15138:15144   */\n      dup4\n        /* \"#utility.yul\":15131:15195   */\n      sstore\n        /* \"#utility.yul\":15053:15209   */\n      pop\n        /* \"#utility.yul\":15030:15209   */\n    tag_292:\n        /* \"#utility.yul\":15255:15256   */\n      0x01\n        /* \"#utility.yul\":15251:15252   */\n      0x02\n        /* \"#utility.yul\":15243:15249   */\n      dup9\n        /* \"#utility.yul\":15239:15253   */\n      mul\n        /* \"#utility.yul\":15235:15257   */\n      add\n        /* \"#utility.yul\":15229:15233   */\n      dup9\n        /* \"#utility.yul\":15222:15258   */\n      sstore\n        /* \"#utility.yul\":14657:15268   */\n      pop\n      pop\n      pop\n        /* \"#utility.yul\":14620:15507   */\n    tag_284:\n      pop\n        /* \"#utility.yul\":14210:15513   */\n      pop\n      pop\n      pop\n        /* \"#utility.yul\":14118:15513   */\n      pop\n      pop\n      jump\t// out\n        /* \"#utility.yul\":15519:15682   */\n    tag_132:\n        /* \"#utility.yul\":15659:15674   */\n      0x496e76616c696420696e64657800000000000000000000000000000000000000\n        /* \"#utility.yul\":15655:15656   */\n      0x00\n        /* \"#utility.yul\":15647:15653   */\n      dup3\n        /* \"#utility.yul\":15643:15657   */\n      add\n        /* \"#utility.yul\":15636:15675   */\n      mstore\n        /* \"#utility.yul\":15519:15682   */\n      pop\n      jump\t// out\n        /* \"#utility.yul\":15688:16054   */\n    tag_133:\n        /* \"#utility.yul\":15830:15833   */\n      0x00\n        /* \"#utility.yul\":15851:15918   */\n      tag_296\n        /* \"#utility.yul\":15915:15917   */\n      0x0d\n        /* \"#utility.yul\":15910:15913   */\n      dup4\n        /* \"#utility.yul\":15851:15918   */\n      tag_110\n      jump\t// in\n    tag_296:\n        /* \"#utility.yul\":15844:15918   */\n      swap2\n      pop\n        /* \"#utility.yul\":15927:16020   */\n      tag_297\n        /* \"#utility.yul\":16016:16019   */\n      dup3\n        /* \"#utility.yul\":15927:16020   */\n      tag_132\n      jump\t// in\n    tag_297:\n        /* \"#utility.yul\":16045:16047   */\n      0x20\n        /* \"#utility.yul\":16040:16043   */\n      dup3\n        /* \"#utility.yul\":16036:16048   */\n      add\n        /* \"#utility.yul\":16029:16048   */\n      swap1\n      pop\n        /* \"#utility.yul\":15688:16054   */\n      swap2\n      swap1\n      pop\n      jump\t// out\n        /* \"#utility.yul\":16060:16479   */\n    tag_54:\n        /* \"#utility.yul\":16226:16230   */\n      0x00\n        /* \"#utility.yul\":16264:16266   */\n      0x20\n        /* \"#utility.yul\":16253:16262   */\n      dup3\n        /* \"#utility.yul\":16249:16267   */\n      add\n        /* \"#utility.yul\":16241:16267   */\n      swap1\n      pop\n        /* \"#utility.yul\":16313:16322   */\n      dup2\n        /* \"#utility.yul\":16307:16311   */\n      dup2\n        /* \"#utility.yul\":16303:16323   */\n      sub\n        /* \"#utility.yul\":16299:16300   */\n      0x00\n        /* \"#utility.yul\":16288:16297   */\n      dup4\n        /* \"#utility.yul\":16284:16301   */\n      add\n        /* \"#utility.yul\":16277:16324   */\n      mstore\n        /* \"#utility.yul\":16341:16472   */\n      tag_299\n        /* \"#utility.yul\":16467:16471   */\n      dup2\n        /* \"#utility.yul\":16341:16472   */\n      tag_133\n      jump\t// in\n    tag_299:\n        /* \"#utility.yul\":16333:16472   */\n      swap1\n      pop\n        /* \"#utility.yul\":16060:16479   */\n      swap2\n      swap1\n      pop\n      jump\t// out\n        /* \"#utility.yul\":16485:16665   */\n    tag_57:\n        /* \"#utility.yul\":16533:16610   */\n      0x4e487b7100000000000000000000000000000000000000000000000000000000\n        /* \"#utility.yul\":16530:16531   */\n      0x00\n        /* \"#utility.yul\":16523:16611   */\n      mstore\n        /* \"#utility.yul\":16630:16634   */\n      0x32\n        /* \"#utility.yul\":16627:16628   */\n      0x04\n        /* \"#utility.yul\":16620:16635   */\n      mstore\n        /* \"#utility.yul\":16654:16658   */\n      0x24\n        /* \"#utility.yul\":16651:16652   */\n      0x00\n        /* \"#utility.yul\":16644:16659   */\n      revert\n        /* \"#utility.yul\":16671:16831   */\n    tag_134:\n        /* \"#utility.yul\":16811:16823   */\n      0x4f6e6c79206f776e657200000000000000000000000000000000000000000000\n        /* \"#utility.yul\":16807:16808   */\n      0x00\n        /* \"#utility.yul\":16799:16805   */\n      dup3\n        /* \"#utility.yul\":16795:16809   */\n      add\n        /* \"#utility.yul\":16788:16824   */\n      mstore\n        /* \"#utility.yul\":16671:16831   */\n      pop\n      jump\t// out\n        /* \"#utility.yul\":16837:17203   */\n    tag_135:\n        /* \"#utility.yul\":16979:16982   */\n      0x00\n        /* \"#utility.yul\":17000:17067   */\n      tag_303\n        /* \"#utility.yul\":17064:17066   */\n      0x0a\n        /* \"#utility.yul\":17059:17062   */\n      dup4\n        /* \"#utility.yul\":17000:17067   */\n      tag_110\n      jump\t// in\n    tag_303:\n        /* \"#utility.yul\":16993:17067   */\n      swap2\n      pop\n        /* \"#utility.yul\":17076:17169   */\n      tag_304\n        /* \"#utility.yul\":17165:17168   */\n      dup3\n        /* \"#utility.yul\":17076:17169   */\n      tag_134\n      jump\t// in\n    tag_304:\n        /* \"#utility.yul\":17194:17196   */\n      0x20\n        /* \"#utility.yul\":17189:17192   */\n      dup3\n        /* \"#utility.yul\":17185:17197   */\n      add\n        /* \"#utility.yul\":17178:17197   */\n      swap1\n      pop\n        /* \"#utility.yul\":16837:17203   */\n      swap2\n      swap1\n      pop\n      jump\t// out\n        /* \"#utility.yul\":17209:17628   */\n    tag_74:\n        /* \"#utility.yul\":17375:17379   */\n      0x00\n        /* \"#utility.yul\":17413:17415   */\n      0x20\n        /* \"#utility.yul\":17402:17411   */\n      dup3\n        /* \"#utility.yul\":17398:17416   */\n      add\n        /* \"#utility.yul\":17390:17416   */\n      swap1\n      pop\n        /* \"#utility.yul\":17462:17471   */\n      dup2\n        /* \"#utility.yul\":17456:17460   */\n      dup2\n        /* \"#utility.yul\":17452:17472   */\n      sub\n        /* \"#utility.yul\":17448:17449   */\n      0x00\n        /* \"#utility.yul\":17437:17446   */\n      dup4\n        /* \"#utility.yul\":17433:17450   */\n      add\n        /* \"#utility.yul\":17426:17473   */\n      mstore\n        /* \"#utility.yul\":17490:17621   */\n      tag_306\n        /* \"#utility.yul\":17616:17620   */\n      dup2\n        /* \"#utility.yul\":17490:17621   */\n      tag_135\n      jump\t// in\n    tag_306:\n        /* \"#utility.yul\":17482:17621   */\n      swap1\n      pop\n        /* \"#utility.yul\":17209:17628   */\n      swap2\n      swap1\n      pop\n      jump\t// out\n\n    auxdata: 0xa2646970667358221220fdeef3c7c38c1e5ab0c89685c23f4f6e3779d0d9acdc1b906b2db547438c614464736f6c634300081e0033\n}\n",
				"bytecode": {
					"linkReferences": {},
					"object": "6080604052348015600e575f5ffd5b50335f5f6101000a81548173ffffffffffffffffffffffffffffffffffffffff021916908373ffffffffffffffffffffffffffffffffffffffff160217905550610ea88061005b5f395ff3fe608060405234801561000f575f5ffd5b5060043610610060575f3560e01c80630153b82b1461006457806315c39a5a14610082578063202cbac21461009e5780638820e466146100ce5780638da5cb5b146100ff578063efe471671461011d575b5f5ffd5b61006c610139565b6040516100799190610770565b60405180910390f35b61009c600480360381019061009791906108cd565b61023e565b005b6100b860048036038101906100b39190610947565b6102b5565b6040516100c591906109ac565b60405180910390f35b6100e860048036038101906100e39190610947565b6103df565b6040516100f6929190610a23565b60405180910390f35b6101076104a0565b6040516101149190610a90565b60405180910390f35b61013760048036038101906101329190610947565b6104c4565b005b60606001805480602002602001604051908101604052809291908181526020015f905b82821015610235578382905f5260205f2090600202016040518060400160405290815f8201805461018c90610ad6565b80601f01602080910402602001604051908101604052809291908181526020018280546101b890610ad6565b80156102035780601f106101da57610100808354040283529160200191610203565b820191905f5260205f20905b8154815290600101906020018083116101e657829003601f168201915b50505050508152602001600182015f9054906101000a900460ff1615151515815250508152602001906001019061015c565b50505050905090565b600160405180604001604052808381526020015f1515815250908060018154018082558091505060019003905f5260205f2090600202015f909190919091505f820151815f0190816102909190610ca6565b506020820151816001015f6101000a81548160ff021916908315150217905550505050565b6102bd6105d6565b6001805490508210610304576040517f08c379a00000000000000000000000000000000000000000000000000000000081526004016102fb90610dbf565b60405180910390fd5b6001828154811061031857610317610ddd565b5b905f5260205f2090600202016040518060400160405290815f8201805461033e90610ad6565b80601f016020809104026020016040519081016040528092919081815260200182805461036a90610ad6565b80156103b55780601f1061038c576101008083540402835291602001916103b5565b820191905f5260205f20905b81548152906001019060200180831161039857829003601f168201915b50505050508152602001600182015f9054906101000a900460ff1615151515815250509050919050565b600181815481106103ee575f80fd5b905f5260205f2090600202015f91509050805f01805461040d90610ad6565b80601f016020809104026020016040519081016040528092919081815260200182805461043990610ad6565b80156104845780601f1061045b57610100808354040283529160200191610484565b820191905f5260205f20905b81548152906001019060200180831161046757829003601f168201915b505050505090806001015f9054906101000a900460ff16905082565b5f5f9054906101000a900473ffffffffffffffffffffffffffffffffffffffff1681565b5f5f9054906101000a900473ffffffffffffffffffffffffffffffffffffffff1673ffffffffffffffffffffffffffffffffffffffff163373ffffffffffffffffffffffffffffffffffffffff1614610552576040517f08c379a000000000000000000000000000000000000000000000000000000000815260040161054990610e54565b60405180910390fd5b6001805490508110610599576040517f08c379a000000000000000000000000000000000000000000000000000000000815260040161059090610dbf565b60405180910390fd5b60018082815481106105ae576105ad610ddd565b5b905f5260205f2090600202016001015f6101000a81548160ff02191690831515021790555050565b6040518060400160405280606081526020015f151581525090565b5f81519050919050565b5f82825260208201905092915050565b5f819050602082019050919050565b5f81519050919050565b5f82825260208201905092915050565b8281835e5f83830152505050565b5f601f19601f8301169050919050565b5f61065c8261061a565b6106668185610624565b9350610676818560208601610634565b61067f81610642565b840191505092915050565b5f8115159050919050565b61069e8161068a565b82525050565b5f604083015f8301518482035f8601526106be8282610652565b91505060208301516106d36020860182610695565b508091505092915050565b5f6106e983836106a4565b905092915050565b5f602082019050919050565b5f610707826105f1565b61071181856105fb565b9350836020820285016107238561060b565b805f5b8581101561075e578484038952815161073f85826106de565b945061074a836106f1565b925060208a01995050600181019050610726565b50829750879550505050505092915050565b5f6020820190508181035f83015261078881846106fd565b905092915050565b5f604051905090565b5f5ffd5b5f5ffd5b5f5ffd5b5f5ffd5b7f4e487b71000000000000000000000000000000000000000000000000000000005f52604160045260245ffd5b6107df82610642565b810181811067ffffffffffffffff821117156107fe576107fd6107a9565b5b80604052505050565b5f610810610790565b905061081c82826107d6565b919050565b5f67ffffffffffffffff82111561083b5761083a6107a9565b5b61084482610642565b9050602081019050919050565b828183375f83830152505050565b5f61087161086c84610821565b610807565b90508281526020810184848401111561088d5761088c6107a5565b5b610898848285610851565b509392505050565b5f82601f8301126108b4576108b36107a1565b5b81356108c484826020860161085f565b91505092915050565b5f602082840312156108e2576108e1610799565b5b5f82013567ffffffffffffffff8111156108ff576108fe61079d565b5b61090b848285016108a0565b91505092915050565b5f819050919050565b61092681610914565b8114610930575f5ffd5b50565b5f813590506109418161091d565b92915050565b5f6020828403121561095c5761095b610799565b5b5f61096984828501610933565b91505092915050565b5f604083015f8301518482035f86015261098c8282610652565b91505060208301516109a16020860182610695565b508091505092915050565b5f6020820190508181035f8301526109c48184610972565b905092915050565b5f82825260208201905092915050565b5f6109e68261061a565b6109f081856109cc565b9350610a00818560208601610634565b610a0981610642565b840191505092915050565b610a1d8161068a565b82525050565b5f6040820190508181035f830152610a3b81856109dc565b9050610a4a6020830184610a14565b9392505050565b5f73ffffffffffffffffffffffffffffffffffffffff82169050919050565b5f610a7a82610a51565b9050919050565b610a8a81610a70565b82525050565b5f602082019050610aa35f830184610a81565b92915050565b7f4e487b71000000000000000000000000000000000000000000000000000000005f52602260045260245ffd5b5f6002820490506001821680610aed57607f821691505b602082108103610b0057610aff610aa9565b5b50919050565b5f819050815f5260205f209050919050565b5f6020601f8301049050919050565b5f82821b905092915050565b5f60088302610b627fffffffffffffffffffffffffffffffffffffffffffffffffffffffffffffffff82610b27565b610b6c8683610b27565b95508019841693508086168417925050509392505050565b5f819050919050565b5f610ba7610ba2610b9d84610914565b610b84565b610914565b9050919050565b5f819050919050565b610bc083610b8d565b610bd4610bcc82610bae565b848454610b33565b825550505050565b5f5f905090565b610beb610bdc565b610bf6818484610bb7565b505050565b5b81811015610c1957610c0e5f82610be3565b600181019050610bfc565b5050565b601f821115610c5e57610c2f81610b06565b610c3884610b18565b81016020851015610c47578190505b610c5b610c5385610b18565b830182610bfb565b50505b505050565b5f82821c905092915050565b5f610c7e5f1984600802610c63565b1980831691505092915050565b5f610c968383610c6f565b9150826002028217905092915050565b610caf8261061a565b67ffffffffffffffff811115610cc857610cc76107a9565b5b610cd28254610ad6565b610cdd828285610c1d565b5f60209050601f831160018114610d0e575f8415610cfc578287015190505b610d068582610c8b565b865550610d6d565b601f198416610d1c86610b06565b5f5b82811015610d4357848901518255600182019150602085019450602081019050610d1e565b86831015610d605784890151610d5c601f891682610c6f565b8355505b6001600288020188555050505b505050505050565b7f496e76616c696420696e646578000000000000000000000000000000000000005f82015250565b5f610da9600d836109cc565b9150610db482610d75565b602082019050919050565b5f6020820190508181035f830152610dd681610d9d565b9050919050565b7f4e487b71000000000000000000000000000000000000000000000000000000005f52603260045260245ffd5b7f4f6e6c79206f776e6572000000000000000000000000000000000000000000005f82015250565b5f610e3e600a836109cc565b9150610e4982610e0a565b602082019050919050565b5f6020820190508181035f830152610e6b81610e32565b905091905056fea2646970667358221220fdeef3c7c38c1e5ab0c89685c23f4f6e3779d0d9acdc1b906b2db547438c614464736f6c634300081e0033",
					"opcodes": "PUSH1 0x80 PUSH1 0x40 MSTORE CALLVALUE DUP1 ISZERO PUSH1 0xE JUMPI PUSH0 PUSH0 REVERT JUMPDEST POP CALLER PUSH0 PUSH0 PUSH2 0x100 EXP DUP2 SLOAD DUP2 PUSH20 0xFFFFFFFFFFFFFFFFFFFFFFFFFFFFFFFFFFFFFFFF MUL NOT AND SWAP1 DUP4 PUSH20 0xFFFFFFFFFFFFFFFFFFFFFFFFFFFFFFFFFFFFFFFF AND MUL OR SWAP1 SSTORE POP PUSH2 0xEA8 DUP1 PUSH2 0x5B PUSH0 CODECOPY PUSH0 RETURN INVALID PUSH1 0x80 PUSH1 0x40 MSTORE CALLVALUE DUP1 ISZERO PUSH2 0xF JUMPI PUSH0 PUSH0 REVERT JUMPDEST POP PUSH1 0x4 CALLDATASIZE LT PUSH2 0x60 JUMPI PUSH0 CALLDATALOAD PUSH1 0xE0 SHR DUP1 PUSH4 0x153B82B EQ PUSH2 0x64 JUMPI DUP1 PUSH4 0x15C39A5A EQ PUSH2 0x82 JUMPI DUP1 PUSH4 0x202CBAC2 EQ PUSH2 0x9E JUMPI DUP1 PUSH4 0x8820E466 EQ PUSH2 0xCE JUMPI DUP1 PUSH4 0x8DA5CB5B EQ PUSH2 0xFF JUMPI DUP1 PUSH4 0xEFE47167 EQ PUSH2 0x11D JUMPI JUMPDEST PUSH0 PUSH0 REVERT JUMPDEST PUSH2 0x6C PUSH2 0x139 JUMP JUMPDEST PUSH1 0x40 MLOAD PUSH2 0x79 SWAP2 SWAP1 PUSH2 0x770 JUMP JUMPDEST PUSH1 0x40 MLOAD DUP1 SWAP2 SUB SWAP1 RETURN JUMPDEST PUSH2 0x9C PUSH1 0x4 DUP1 CALLDATASIZE SUB DUP2 ADD SWAP1 PUSH2 0x97 SWAP2 SWAP1 PUSH2 0x8CD JUMP JUMPDEST PUSH2 0x23E JUMP JUMPDEST STOP JUMPDEST PUSH2 0xB8 PUSH1 0x4 DUP1 CALLDATASIZE SUB DUP2 ADD SWAP1 PUSH2 0xB3 SWAP2 SWAP1 PUSH2 0x947 JUMP JUMPDEST PUSH2 0x2B5 JUMP JUMPDEST PUSH1 0x40 MLOAD PUSH2 0xC5 SWAP2 SWAP1 PUSH2 0x9AC JUMP JUMPDEST PUSH1 0x40 MLOAD DUP1 SWAP2 SUB SWAP1 RETURN JUMPDEST PUSH2 0xE8 PUSH1 0x4 DUP1 CALLDATASIZE SUB DUP2 ADD SWAP1 PUSH2 0xE3 SWAP2 SWAP1 PUSH2 0x947 JUMP JUMPDEST PUSH2 0x3DF JUMP JUMPDEST PUSH1 0x40 MLOAD PUSH2 0xF6 SWAP3 SWAP2 SWAP1 PUSH2 0xA23 JUMP JUMPDEST PUSH1 0x40 MLOAD DUP1 SWAP2 SUB SWAP1 RETURN JUMPDEST PUSH2 0x107 PUSH2 0x4A0 JUMP JUMPDEST PUSH1 0x40 MLOAD PUSH2 0x114 SWAP2 SWAP1 PUSH2 0xA90 JUMP JUMPDEST PUSH1 0x40 MLOAD DUP1 SWAP2 SUB SWAP1 RETURN JUMPDEST PUSH2 0x137 PUSH1 0x4 DUP1 CALLDATASIZE SUB DUP2 ADD SWAP1 PUSH2 0x132 SWAP2 SWAP1 PUSH2 0x947 JUMP JUMPDEST PUSH2 0x4C4 JUMP JUMPDEST STOP JUMPDEST PUSH1 0x60 PUSH1 0x1 DUP1 SLOAD DUP1 PUSH1 0x20 MUL PUSH1 0x20 ADD PUSH1 0x40 MLOAD SWAP1 DUP2 ADD PUSH1 0x40 MSTORE DUP1 SWAP3 SWAP2 SWAP1 DUP2 DUP2 MSTORE PUSH1 0x20 ADD PUSH0 SWAP1 JUMPDEST DUP3 DUP3 LT ISZERO PUSH2 0x235 JUMPI DUP4 DUP3 SWAP1 PUSH0 MSTORE PUSH1 0x20 PUSH0 KECCAK256 SWAP1 PUSH1 0x2 MUL ADD PUSH1 0x40 MLOAD DUP1 PUSH1 0x40 ADD PUSH1 0x40 MSTORE SWAP1 DUP2 PUSH0 DUP3 ADD DUP1 SLOAD PUSH2 0x18C SWAP1 PUSH2 0xAD6 JUMP JUMPDEST DUP1 PUSH1 0x1F ADD PUSH1 0x20 DUP1 SWAP2 DIV MUL PUSH1 0x20 ADD PUSH1 0x40 MLOAD SWAP1 DUP2 ADD PUSH1 0x40 MSTORE DUP1 SWAP3 SWAP2 SWAP1 DUP2 DUP2 MSTORE PUSH1 0x20 ADD DUP3 DUP1 SLOAD PUSH2 0x1B8 SWAP1 PUSH2 0xAD6 JUMP JUMPDEST DUP1 ISZERO PUSH2 0x203 JUMPI DUP1 PUSH1 0x1F LT PUSH2 0x1DA JUMPI PUSH2 0x100 DUP1 DUP4 SLOAD DIV MUL DUP4 MSTORE SWAP2 PUSH1 0x20 ADD SWAP2 PUSH2 0x203 JUMP JUMPDEST DUP3 ADD SWAP2 SWAP1 PUSH0 MSTORE PUSH1 0x20 PUSH0 KECCAK256 SWAP1 JUMPDEST DUP2 SLOAD DUP2 MSTORE SWAP1 PUSH1 0x1 ADD SWAP1 PUSH1 0x20 ADD DUP1 DUP4 GT PUSH2 0x1E6 JUMPI DUP3 SWAP1 SUB PUSH1 0x1F AND DUP3 ADD SWAP2 JUMPDEST POP POP POP POP POP DUP2 MSTORE PUSH1 0x20 ADD PUSH1 0x1 DUP3 ADD PUSH0 SWAP1 SLOAD SWAP1 PUSH2 0x100 EXP SWAP1 DIV PUSH1 0xFF AND ISZERO ISZERO ISZERO ISZERO DUP2 MSTORE POP POP DUP2 MSTORE PUSH1 0x20 ADD SWAP1 PUSH1 0x1 ADD SWAP1 PUSH2 0x15C JUMP JUMPDEST POP POP POP POP SWAP1 POP SWAP1 JUMP JUMPDEST PUSH1 0x1 PUSH1 0x40 MLOAD DUP1 PUSH1 0x40 ADD PUSH1 0x40 MSTORE DUP1 DUP4 DUP2 MSTORE PUSH1 0x20 ADD PUSH0 ISZERO ISZERO DUP2 MSTORE POP SWAP1 DUP1 PUSH1 0x1 DUP2 SLOAD ADD DUP1 DUP3 SSTORE DUP1 SWAP2 POP POP PUSH1 0x1 SWAP1 SUB SWAP1 PUSH0 MSTORE PUSH1 0x20 PUSH0 KECCAK256 SWAP1 PUSH1 0x2 MUL ADD PUSH0 SWAP1 SWAP2 SWAP1 SWAP2 SWAP1 SWAP2 POP PUSH0 DUP3 ADD MLOAD DUP2 PUSH0 ADD SWAP1 DUP2 PUSH2 0x290 SWAP2 SWAP1 PUSH2 0xCA6 JUMP JUMPDEST POP PUSH1 0x20 DUP3 ADD MLOAD DUP2 PUSH1 0x1 ADD PUSH0 PUSH2 0x100 EXP DUP2 SLOAD DUP2 PUSH1 0xFF MUL NOT AND SWAP1 DUP4 ISZERO ISZERO MUL OR SWAP1 SSTORE POP POP POP POP JUMP JUMPDEST PUSH2 0x2BD PUSH2 0x5D6 JUMP JUMPDEST PUSH1 0x1 DUP1 SLOAD SWAP1 POP DUP3 LT PUSH2 0x304 JUMPI PUSH1 0x40 MLOAD PUSH32 0x8C379A000000000000000000000000000000000000000000000000000000000 DUP2 MSTORE PUSH1 0x4 ADD PUSH2 0x2FB SWAP1 PUSH2 0xDBF JUMP JUMPDEST PUSH1 0x40 MLOAD DUP1 SWAP2 SUB SWAP1 REVERT JUMPDEST PUSH1 0x1 DUP3 DUP2 SLOAD DUP2 LT PUSH2 0x318 JUMPI PUSH2 0x317 PUSH2 0xDDD JUMP JUMPDEST JUMPDEST SWAP1 PUSH0 MSTORE PUSH1 0x20 PUSH0 KECCAK256 SWAP1 PUSH1 0x2 MUL ADD PUSH1 0x40 MLOAD DUP1 PUSH1 0x40 ADD PUSH1 0x40 MSTORE SWAP1 DUP2 PUSH0 DUP3 ADD DUP1 SLOAD PUSH2 0x33E SWAP1 PUSH2 0xAD6 JUMP JUMPDEST DUP1 PUSH1 0x1F ADD PUSH1 0x20 DUP1 SWAP2 DIV MUL PUSH1 0x20 ADD PUSH1 0x40 MLOAD SWAP1 DUP2 ADD PUSH1 0x40 MSTORE DUP1 SWAP3 SWAP2 SWAP1 DUP2 DUP2 MSTORE PUSH1 0x20 ADD DUP3 DUP1 SLOAD PUSH2 0x36A SWAP1 PUSH2 0xAD6 JUMP JUMPDEST DUP1 ISZERO PUSH2 0x3B5 JUMPI DUP1 PUSH1 0x1F LT PUSH2 0x38C JUMPI PUSH2 0x100 DUP1 DUP4 SLOAD DIV MUL DUP4 MSTORE SWAP2 PUSH1 0x20 ADD SWAP2 PUSH2 0x3B5 JUMP JUMPDEST DUP3 ADD SWAP2 SWAP1 PUSH0 MSTORE PUSH1 0x20 PUSH0 KECCAK256 SWAP1 JUMPDEST DUP2 SLOAD DUP2 MSTORE SWAP1 PUSH1 0x1 ADD SWAP1 PUSH1 0x20 ADD DUP1 DUP4 GT PUSH2 0x398 JUMPI DUP3 SWAP1 SUB PUSH1 0x1F AND DUP3 ADD SWAP2 JUMPDEST POP POP POP POP POP DUP2 MSTORE PUSH1 0x20 ADD PUSH1 0x1 DUP3 ADD PUSH0 SWAP1 SLOAD SWAP1 PUSH2 0x100 EXP SWAP1 DIV PUSH1 0xFF AND ISZERO ISZERO ISZERO ISZERO DUP2 MSTORE POP POP SWAP1 POP SWAP2 SWAP1 POP JUMP JUMPDEST PUSH1 0x1 DUP2 DUP2 SLOAD DUP2 LT PUSH2 0x3EE JUMPI PUSH0 DUP1 REVERT JUMPDEST SWAP1 PUSH0 MSTORE PUSH1 0x20 PUSH0 KECCAK256 SWAP1 PUSH1 0x2 MUL ADD PUSH0 SWAP2 POP SWAP1 POP DUP1 PUSH0 ADD DUP1 SLOAD PUSH2 0x40D SWAP1 PUSH2 0xAD6 JUMP JUMPDEST DUP1 PUSH1 0x1F ADD PUSH1 0x20 DUP1 SWAP2 DIV MUL PUSH1 0x20 ADD PUSH1 0x40 MLOAD SWAP1 DUP2 ADD PUSH1 0x40 MSTORE DUP1 SWAP3 SWAP2 SWAP1 DUP2 DUP2 MSTORE PUSH1 0x20 ADD DUP3 DUP1 SLOAD PUSH2 0x439 SWAP1 PUSH2 0xAD6 JUMP JUMPDEST DUP1 ISZERO PUSH2 0x484 JUMPI DUP1 PUSH1 0x1F LT PUSH2 0x45B JUMPI PUSH2 0x100 DUP1 DUP4 SLOAD DIV MUL DUP4 MSTORE SWAP2 PUSH1 0x20 ADD SWAP2 PUSH2 0x484 JUMP JUMPDEST DUP3 ADD SWAP2 SWAP1 PUSH0 MSTORE PUSH1 0x20 PUSH0 KECCAK256 SWAP1 JUMPDEST DUP2 SLOAD DUP2 MSTORE SWAP1 PUSH1 0x1 ADD SWAP1 PUSH1 0x20 ADD DUP1 DUP4 GT PUSH2 0x467 JUMPI DUP3 SWAP1 SUB PUSH1 0x1F AND DUP3 ADD SWAP2 JUMPDEST POP POP POP POP POP SWAP1 DUP1 PUSH1 0x1 ADD PUSH0 SWAP1 SLOAD SWAP1 PUSH2 0x100 EXP SWAP1 DIV PUSH1 0xFF AND SWAP1 POP DUP3 JUMP JUMPDEST PUSH0 PUSH0 SWAP1 SLOAD SWAP1 PUSH2 0x100 EXP SWAP1 DIV PUSH20 0xFFFFFFFFFFFFFFFFFFFFFFFFFFFFFFFFFFFFFFFF AND DUP2 JUMP JUMPDEST PUSH0 PUSH0 SWAP1 SLOAD SWAP1 PUSH2 0x100 EXP SWAP1 DIV PUSH20 0xFFFFFFFFFFFFFFFFFFFFFFFFFFFFFFFFFFFFFFFF AND PUSH20 0xFFFFFFFFFFFFFFFFFFFFFFFFFFFFFFFFFFFFFFFF AND CALLER PUSH20 0xFFFFFFFFFFFFFFFFFFFFFFFFFFFFFFFFFFFFFFFF AND EQ PUSH2 0x552 JUMPI PUSH1 0x40 MLOAD PUSH32 0x8C379A000000000000000000000000000000000000000000000000000000000 DUP2 MSTORE PUSH1 0x4 ADD PUSH2 0x549 SWAP1 PUSH2 0xE54 JUMP JUMPDEST PUSH1 0x40 MLOAD DUP1 SWAP2 SUB SWAP1 REVERT JUMPDEST PUSH1 0x1 DUP1 SLOAD SWAP1 POP DUP2 LT PUSH2 0x599 JUMPI PUSH1 0x40 MLOAD PUSH32 0x8C379A000000000000000000000000000000000000000000000000000000000 DUP2 MSTORE PUSH1 0x4 ADD PUSH2 0x590 SWAP1 PUSH2 0xDBF JUMP JUMPDEST PUSH1 0x40 MLOAD DUP1 SWAP2 SUB SWAP1 REVERT JUMPDEST PUSH1 0x1 DUP1 DUP3 DUP2 SLOAD DUP2 LT PUSH2 0x5AE JUMPI PUSH2 0x5AD PUSH2 0xDDD JUMP JUMPDEST JUMPDEST SWAP1 PUSH0 MSTORE PUSH1 0x20 PUSH0 KECCAK256 SWAP1 PUSH1 0x2 MUL ADD PUSH1 0x1 ADD PUSH0 PUSH2 0x100 EXP DUP2 SLOAD DUP2 PUSH1 0xFF MUL NOT AND SWAP1 DUP4 ISZERO ISZERO MUL OR SWAP1 SSTORE POP POP JUMP JUMPDEST PUSH1 0x40 MLOAD DUP1 PUSH1 0x40 ADD PUSH1 0x40 MSTORE DUP1 PUSH1 0x60 DUP2 MSTORE PUSH1 0x20 ADD PUSH0 ISZERO ISZERO DUP2 MSTORE POP SWAP1 JUMP JUMPDEST PUSH0 DUP2 MLOAD SWAP1 POP SWAP2 SWAP1 POP JUMP JUMPDEST PUSH0 DUP3 DUP3 MSTORE PUSH1 0x20 DUP3 ADD SWAP1 POP SWAP3 SWAP2 POP POP JUMP JUMPDEST PUSH0 DUP2 SWAP1 POP PUSH1 0x20 DUP3 ADD SWAP1 POP SWAP2 SWAP1 POP JUMP JUMPDEST PUSH0 DUP2 MLOAD SWAP1 POP SWAP2 SWAP1 POP JUMP JUMPDEST PUSH0 DUP3 DUP3 MSTORE PUSH1 0x20 DUP3 ADD SWAP1 POP SWAP3 SWAP2 POP POP JUMP JUMPDEST DUP3 DUP2 DUP4 MCOPY PUSH0 DUP4 DUP4 ADD MSTORE POP POP POP JUMP JUMPDEST PUSH0 PUSH1 0x1F NOT PUSH1 0x1F DUP4 ADD AND SWAP1 POP SWAP2 SWAP1 POP JUMP JUMPDEST PUSH0 PUSH2 0x65C DUP3 PUSH2 0x61A JUMP JUMPDEST PUSH2 0x666 DUP2 DUP6 PUSH2 0x624 JUMP JUMPDEST SWAP4 POP PUSH2 0x676 DUP2 DUP6 PUSH1 0x20 DUP7 ADD PUSH2 0x634 JUMP JUMPDEST PUSH2 0x67F DUP2 PUSH2 0x642 JUMP JUMPDEST DUP5 ADD SWAP2 POP POP SWAP3 SWAP2 POP POP JUMP JUMPDEST PUSH0 DUP2 ISZERO ISZERO SWAP1 POP SWAP2 SWAP1 POP JUMP JUMPDEST PUSH2 0x69E DUP2 PUSH2 0x68A JUMP JUMPDEST DUP3 MSTORE POP POP JUMP JUMPDEST PUSH0 PUSH1 0x40 DUP4 ADD PUSH0 DUP4 ADD MLOAD DUP5 DUP3 SUB PUSH0 DUP7 ADD MSTORE PUSH2 0x6BE DUP3 DUP3 PUSH2 0x652 JUMP JUMPDEST SWAP2 POP POP PUSH1 0x20 DUP4 ADD MLOAD PUSH2 0x6D3 PUSH1 0x20 DUP7 ADD DUP3 PUSH2 0x695 JUMP JUMPDEST POP DUP1 SWAP2 POP POP SWAP3 SWAP2 POP POP JUMP JUMPDEST PUSH0 PUSH2 0x6E9 DUP4 DUP4 PUSH2 0x6A4 JUMP JUMPDEST SWAP1 POP SWAP3 SWAP2 POP POP JUMP JUMPDEST PUSH0 PUSH1 0x20 DUP3 ADD SWAP1 POP SWAP2 SWAP1 POP JUMP JUMPDEST PUSH0 PUSH2 0x707 DUP3 PUSH2 0x5F1 JUMP JUMPDEST PUSH2 0x711 DUP2 DUP6 PUSH2 0x5FB JUMP JUMPDEST SWAP4 POP DUP4 PUSH1 0x20 DUP3 MUL DUP6 ADD PUSH2 0x723 DUP6 PUSH2 0x60B JUMP JUMPDEST DUP1 PUSH0 JUMPDEST DUP6 DUP2 LT ISZERO PUSH2 0x75E JUMPI DUP5 DUP5 SUB DUP10 MSTORE DUP2 MLOAD PUSH2 0x73F DUP6 DUP3 PUSH2 0x6DE JUMP JUMPDEST SWAP5 POP PUSH2 0x74A DUP4 PUSH2 0x6F1 JUMP JUMPDEST SWAP3 POP PUSH1 0x20 DUP11 ADD SWAP10 POP POP PUSH1 0x1 DUP2 ADD SWAP1 POP PUSH2 0x726 JUMP JUMPDEST POP DUP3 SWAP8 POP DUP8 SWAP6 POP POP POP POP POP POP SWAP3 SWAP2 POP POP JUMP JUMPDEST PUSH0 PUSH1 0x20 DUP3 ADD SWAP1 POP DUP2 DUP2 SUB PUSH0 DUP4 ADD MSTORE PUSH2 0x788 DUP2 DUP5 PUSH2 0x6FD JUMP JUMPDEST SWAP1 POP SWAP3 SWAP2 POP POP JUMP JUMPDEST PUSH0 PUSH1 0x40 MLOAD SWAP1 POP SWAP1 JUMP JUMPDEST PUSH0 PUSH0 REVERT JUMPDEST PUSH0 PUSH0 REVERT JUMPDEST PUSH0 PUSH0 REVERT JUMPDEST PUSH0 PUSH0 REVERT JUMPDEST PUSH32 0x4E487B7100000000000000000000000000000000000000000000000000000000 PUSH0 MSTORE PUSH1 0x41 PUSH1 0x4 MSTORE PUSH1 0x24 PUSH0 REVERT JUMPDEST PUSH2 0x7DF DUP3 PUSH2 0x642 JUMP JUMPDEST DUP2 ADD DUP2 DUP2 LT PUSH8 0xFFFFFFFFFFFFFFFF DUP3 GT OR ISZERO PUSH2 0x7FE JUMPI PUSH2 0x7FD PUSH2 0x7A9 JUMP JUMPDEST JUMPDEST DUP1 PUSH1 0x40 MSTORE POP POP POP JUMP JUMPDEST PUSH0 PUSH2 0x810 PUSH2 0x790 JUMP JUMPDEST SWAP1 POP PUSH2 0x81C DUP3 DUP3 PUSH2 0x7D6 JUMP JUMPDEST SWAP2 SWAP1 POP JUMP JUMPDEST PUSH0 PUSH8 0xFFFFFFFFFFFFFFFF DUP3 GT ISZERO PUSH2 0x83B JUMPI PUSH2 0x83A PUSH2 0x7A9 JUMP JUMPDEST JUMPDEST PUSH2 0x844 DUP3 PUSH2 0x642 JUMP JUMPDEST SWAP1 POP PUSH1 0x20 DUP2 ADD SWAP1 POP SWAP2 SWAP1 POP JUMP JUMPDEST DUP3 DUP2 DUP4 CALLDATACOPY PUSH0 DUP4 DUP4 ADD MSTORE POP POP POP JUMP JUMPDEST PUSH0 PUSH2 0x871 PUSH2 0x86C DUP5 PUSH2 0x821 JUMP JUMPDEST PUSH2 0x807 JUMP JUMPDEST SWAP1 POP DUP3 DUP2 MSTORE PUSH1 0x20 DUP2 ADD DUP5 DUP5 DUP5 ADD GT ISZERO PUSH2 0x88D JUMPI PUSH2 0x88C PUSH2 0x7A5 JUMP JUMPDEST JUMPDEST PUSH2 0x898 DUP5 DUP3 DUP6 PUSH2 0x851 JUMP JUMPDEST POP SWAP4 SWAP3 POP POP POP JUMP JUMPDEST PUSH0 DUP3 PUSH1 0x1F DUP4 ADD SLT PUSH2 0x8B4 JUMPI PUSH2 0x8B3 PUSH2 0x7A1 JUMP JUMPDEST JUMPDEST DUP2 CALLDATALOAD PUSH2 0x8C4 DUP5 DUP3 PUSH1 0x20 DUP7 ADD PUSH2 0x85F JUMP JUMPDEST SWAP2 POP POP SWAP3 SWAP2 POP POP JUMP JUMPDEST PUSH0 PUSH1 0x20 DUP3 DUP5 SUB SLT ISZERO PUSH2 0x8E2 JUMPI PUSH2 0x8E1 PUSH2 0x799 JUMP JUMPDEST JUMPDEST PUSH0 DUP3 ADD CALLDATALOAD PUSH8 0xFFFFFFFFFFFFFFFF DUP2 GT ISZERO PUSH2 0x8FF JUMPI PUSH2 0x8FE PUSH2 0x79D JUMP JUMPDEST JUMPDEST PUSH2 0x90B DUP5 DUP3 DUP6 ADD PUSH2 0x8A0 JUMP JUMPDEST SWAP2 POP POP SWAP3 SWAP2 POP POP JUMP JUMPDEST PUSH0 DUP2 SWAP1 POP SWAP2 SWAP1 POP JUMP JUMPDEST PUSH2 0x926 DUP2 PUSH2 0x914 JUMP JUMPDEST DUP2 EQ PUSH2 0x930 JUMPI PUSH0 PUSH0 REVERT JUMPDEST POP JUMP JUMPDEST PUSH0 DUP2 CALLDATALOAD SWAP1 POP PUSH2 0x941 DUP2 PUSH2 0x91D JUMP JUMPDEST SWAP3 SWAP2 POP POP JUMP JUMPDEST PUSH0 PUSH1 0x20 DUP3 DUP5 SUB SLT ISZERO PUSH2 0x95C JUMPI PUSH2 0x95B PUSH2 0x799 JUMP JUMPDEST JUMPDEST PUSH0 PUSH2 0x969 DUP5 DUP3 DUP6 ADD PUSH2 0x933 JUMP JUMPDEST SWAP2 POP POP SWAP3 SWAP2 POP POP JUMP JUMPDEST PUSH0 PUSH1 0x40 DUP4 ADD PUSH0 DUP4 ADD MLOAD DUP5 DUP3 SUB PUSH0 DUP7 ADD MSTORE PUSH2 0x98C DUP3 DUP3 PUSH2 0x652 JUMP JUMPDEST SWAP2 POP POP PUSH1 0x20 DUP4 ADD MLOAD PUSH2 0x9A1 PUSH1 0x20 DUP7 ADD DUP3 PUSH2 0x695 JUMP JUMPDEST POP DUP1 SWAP2 POP POP SWAP3 SWAP2 POP POP JUMP JUMPDEST PUSH0 PUSH1 0x20 DUP3 ADD SWAP1 POP DUP2 DUP2 SUB PUSH0 DUP4 ADD MSTORE PUSH2 0x9C4 DUP2 DUP5 PUSH2 0x972 JUMP JUMPDEST SWAP1 POP SWAP3 SWAP2 POP POP JUMP JUMPDEST PUSH0 DUP3 DUP3 MSTORE PUSH1 0x20 DUP3 ADD SWAP1 POP SWAP3 SWAP2 POP POP JUMP JUMPDEST PUSH0 PUSH2 0x9E6 DUP3 PUSH2 0x61A JUMP JUMPDEST PUSH2 0x9F0 DUP2 DUP6 PUSH2 0x9CC JUMP JUMPDEST SWAP4 POP PUSH2 0xA00 DUP2 DUP6 PUSH1 0x20 DUP7 ADD PUSH2 0x634 JUMP JUMPDEST PUSH2 0xA09 DUP2 PUSH2 0x642 JUMP JUMPDEST DUP5 ADD SWAP2 POP POP SWAP3 SWAP2 POP POP JUMP JUMPDEST PUSH2 0xA1D DUP2 PUSH2 0x68A JUMP JUMPDEST DUP3 MSTORE POP POP JUMP JUMPDEST PUSH0 PUSH1 0x40 DUP3 ADD SWAP1 POP DUP2 DUP2 SUB PUSH0 DUP4 ADD MSTORE PUSH2 0xA3B DUP2 DUP6 PUSH2 0x9DC JUMP JUMPDEST SWAP1 POP PUSH2 0xA4A PUSH1 0x20 DUP4 ADD DUP5 PUSH2 0xA14 JUMP JUMPDEST SWAP4 SWAP3 POP POP POP JUMP JUMPDEST PUSH0 PUSH20 0xFFFFFFFFFFFFFFFFFFFFFFFFFFFFFFFFFFFFFFFF DUP3 AND SWAP1 POP SWAP2 SWAP1 POP JUMP JUMPDEST PUSH0 PUSH2 0xA7A DUP3 PUSH2 0xA51 JUMP JUMPDEST SWAP1 POP SWAP2 SWAP1 POP JUMP JUMPDEST PUSH2 0xA8A DUP2 PUSH2 0xA70 JUMP JUMPDEST DUP3 MSTORE POP POP JUMP JUMPDEST PUSH0 PUSH1 0x20 DUP3 ADD SWAP1 POP PUSH2 0xAA3 PUSH0 DUP4 ADD DUP5 PUSH2 0xA81 JUMP JUMPDEST SWAP3 SWAP2 POP POP JUMP JUMPDEST PUSH32 0x4E487B7100000000000000000000000000000000000000000000000000000000 PUSH0 MSTORE PUSH1 0x22 PUSH1 0x4 MSTORE PUSH1 0x24 PUSH0 REVERT JUMPDEST PUSH0 PUSH1 0x2 DUP3 DIV SWAP1 POP PUSH1 0x1 DUP3 AND DUP1 PUSH2 0xAED JUMPI PUSH1 0x7F DUP3 AND SWAP2 POP JUMPDEST PUSH1 0x20 DUP3 LT DUP2 SUB PUSH2 0xB00 JUMPI PUSH2 0xAFF PUSH2 0xAA9 JUMP JUMPDEST JUMPDEST POP SWAP2 SWAP1 POP JUMP JUMPDEST PUSH0 DUP2 SWAP1 POP DUP2 PUSH0 MSTORE PUSH1 0x20 PUSH0 KECCAK256 SWAP1 POP SWAP2 SWAP1 POP JUMP JUMPDEST PUSH0 PUSH1 0x20 PUSH1 0x1F DUP4 ADD DIV SWAP1 POP SWAP2 SWAP1 POP JUMP JUMPDEST PUSH0 DUP3 DUP3 SHL SWAP1 POP SWAP3 SWAP2 POP POP JUMP JUMPDEST PUSH0 PUSH1 0x8 DUP4 MUL PUSH2 0xB62 PUSH32 0xFFFFFFFFFFFFFFFFFFFFFFFFFFFFFFFFFFFFFFFFFFFFFFFFFFFFFFFFFFFFFFFF DUP3 PUSH2 0xB27 JUMP JUMPDEST PUSH2 0xB6C DUP7 DUP4 PUSH2 0xB27 JUMP JUMPDEST SWAP6 POP DUP1 NOT DUP5 AND SWAP4 POP DUP1 DUP7 AND DUP5 OR SWAP3 POP POP POP SWAP4 SWAP3 POP POP POP JUMP JUMPDEST PUSH0 DUP2 SWAP1 POP SWAP2 SWAP1 POP JUMP JUMPDEST PUSH0 PUSH2 0xBA7 PUSH2 0xBA2 PUSH2 0xB9D DUP5 PUSH2 0x914 JUMP JUMPDEST PUSH2 0xB84 JUMP JUMPDEST PUSH2 0x914 JUMP JUMPDEST SWAP1 POP SWAP2 SWAP1 POP JUMP JUMPDEST PUSH0 DUP2 SWAP1 POP SWAP2 SWAP1 POP JUMP JUMPDEST PUSH2 0xBC0 DUP4 PUSH2 0xB8D JUMP JUMPDEST PUSH2 0xBD4 PUSH2 0xBCC DUP3 PUSH2 0xBAE JUMP JUMPDEST DUP5 DUP5 SLOAD PUSH2 0xB33 JUMP JUMPDEST DUP3 SSTORE POP POP POP POP JUMP JUMPDEST PUSH0 PUSH0 SWAP1 POP SWAP1 JUMP JUMPDEST PUSH2 0xBEB PUSH2 0xBDC JUMP JUMPDEST PUSH2 0xBF6 DUP2 DUP5 DUP5 PUSH2 0xBB7 JUMP JUMPDEST POP POP POP JUMP JUMPDEST JUMPDEST DUP2 DUP2 LT ISZERO PUSH2 0xC19 JUMPI PUSH2 0xC0E PUSH0 DUP3 PUSH2 0xBE3 JUMP JUMPDEST PUSH1 0x1 DUP2 ADD SWAP1 POP PUSH2 0xBFC JUMP JUMPDEST POP POP JUMP JUMPDEST PUSH1 0x1F DUP3 GT ISZERO PUSH2 0xC5E JUMPI PUSH2 0xC2F DUP2 PUSH2 0xB06 JUMP JUMPDEST PUSH2 0xC38 DUP5 PUSH2 0xB18 JUMP JUMPDEST DUP2 ADD PUSH1 0x20 DUP6 LT ISZERO PUSH2 0xC47 JUMPI DUP2 SWAP1 POP JUMPDEST PUSH2 0xC5B PUSH2 0xC53 DUP6 PUSH2 0xB18 JUMP JUMPDEST DUP4 ADD DUP3 PUSH2 0xBFB JUMP JUMPDEST POP POP JUMPDEST POP POP POP JUMP JUMPDEST PUSH0 DUP3 DUP3 SHR SWAP1 POP SWAP3 SWAP2 POP POP JUMP JUMPDEST PUSH0 PUSH2 0xC7E PUSH0 NOT DUP5 PUSH1 0x8 MUL PUSH2 0xC63 JUMP JUMPDEST NOT DUP1 DUP4 AND SWAP2 POP POP SWAP3 SWAP2 POP POP JUMP JUMPDEST PUSH0 PUSH2 0xC96 DUP4 DUP4 PUSH2 0xC6F JUMP JUMPDEST SWAP2 POP DUP3 PUSH1 0x2 MUL DUP3 OR SWAP1 POP SWAP3 SWAP2 POP POP JUMP JUMPDEST PUSH2 0xCAF DUP3 PUSH2 0x61A JUMP JUMPDEST PUSH8 0xFFFFFFFFFFFFFFFF DUP2 GT ISZERO PUSH2 0xCC8 JUMPI PUSH2 0xCC7 PUSH2 0x7A9 JUMP JUMPDEST JUMPDEST PUSH2 0xCD2 DUP3 SLOAD PUSH2 0xAD6 JUMP JUMPDEST PUSH2 0xCDD DUP3 DUP3 DUP6 PUSH2 0xC1D JUMP JUMPDEST PUSH0 PUSH1 0x20 SWAP1 POP PUSH1 0x1F DUP4 GT PUSH1 0x1 DUP2 EQ PUSH2 0xD0E JUMPI PUSH0 DUP5 ISZERO PUSH2 0xCFC JUMPI DUP3 DUP8 ADD MLOAD SWAP1 POP JUMPDEST PUSH2 0xD06 DUP6 DUP3 PUSH2 0xC8B JUMP JUMPDEST DUP7 SSTORE POP PUSH2 0xD6D JUMP JUMPDEST PUSH1 0x1F NOT DUP5 AND PUSH2 0xD1C DUP7 PUSH2 0xB06 JUMP JUMPDEST PUSH0 JUMPDEST DUP3 DUP2 LT ISZERO PUSH2 0xD43 JUMPI DUP5 DUP10 ADD MLOAD DUP3 SSTORE PUSH1 0x1 DUP3 ADD SWAP2 POP PUSH1 0x20 DUP6 ADD SWAP5 POP PUSH1 0x20 DUP2 ADD SWAP1 POP PUSH2 0xD1E JUMP JUMPDEST DUP7 DUP4 LT ISZERO PUSH2 0xD60 JUMPI DUP5 DUP10 ADD MLOAD PUSH2 0xD5C PUSH1 0x1F DUP10 AND DUP3 PUSH2 0xC6F JUMP JUMPDEST DUP4 SSTORE POP JUMPDEST PUSH1 0x1 PUSH1 0x2 DUP9 MUL ADD DUP9 SSTORE POP POP POP JUMPDEST POP POP POP POP POP POP JUMP JUMPDEST PUSH32 0x496E76616C696420696E64657800000000000000000000000000000000000000 PUSH0 DUP3 ADD MSTORE POP JUMP JUMPDEST PUSH0 PUSH2 0xDA9 PUSH1 0xD DUP4 PUSH2 0x9CC JUMP JUMPDEST SWAP2 POP PUSH2 0xDB4 DUP3 PUSH2 0xD75 JUMP JUMPDEST PUSH1 0x20 DUP3 ADD SWAP1 POP SWAP2 SWAP1 POP JUMP JUMPDEST PUSH0 PUSH1 0x20 DUP3 ADD SWAP1 POP DUP2 DUP2 SUB PUSH0 DUP4 ADD MSTORE PUSH2 0xDD6 DUP2 PUSH2 0xD9D JUMP JUMPDEST SWAP1 POP SWAP2 SWAP1 POP JUMP JUMPDEST PUSH32 0x4E487B7100000000000000000000000000000000000000000000000000000000 PUSH0 MSTORE PUSH1 0x32 PUSH1 0x4 MSTORE PUSH1 0x24 PUSH0 REVERT JUMPDEST PUSH32 0x4F6E6C79206F776E657200000000000000000000000000000000000000000000 PUSH0 DUP3 ADD MSTORE POP JUMP JUMPDEST PUSH0 PUSH2 0xE3E PUSH1 0xA DUP4 PUSH2 0x9CC JUMP JUMPDEST SWAP2 POP PUSH2 0xE49 DUP3 PUSH2 0xE0A JUMP JUMPDEST PUSH1 0x20 DUP3 ADD SWAP1 POP SWAP2 SWAP1 POP JUMP JUMPDEST PUSH0 PUSH1 0x20 DUP3 ADD SWAP1 POP DUP2 DUP2 SUB PUSH0 DUP4 ADD MSTORE PUSH2 0xE6B DUP2 PUSH2 0xE32 JUMP JUMPDEST SWAP1 POP SWAP2 SWAP1 POP JUMP INVALID LOG2 PUSH5 0x6970667358 0x22 SLT KECCAK256 REVERT RETURNCONTRACT 0xF3 0xC7 0xC3 DUP13 0x1E GAS 0xB0 0xC8 SWAP7 DUP6 0xC2 EXTCODEHASH 0x4F PUSH15 0x3779D0D9ACDC1B906B2DB547438C61 PREVRANDAO PUSH5 0x736F6C6343 STOP ADDMOD 0x1E STOP CALLER "
				},
				"gasEstimates": {
					"creation": {
						"codeDepositCost": "750400",
						"executionCost": "25048",
						"totalCost": "775448"
					},
					"external": {
						"addWish(string)": "infinite",
						"fulfillWish(uint256)": "31249",
						"getWish(uint256)": "infinite",
						"getWishes()": "infinite",
						"owner()": "2573",
						"wishes(uint256)": "infinite"
					}
				},
				"methodIdentifiers": {
					"addWish(string)": "15c39a5a",
					"fulfillWish(uint256)": "efe47167",
					"getWish(uint256)": "202cbac2",
					"getWishes()": "0153b82b",
					"owner()": "8da5cb5b",
					"wishes(uint256)": "8820e466"
				}
			},
			"storageLayout": {
				"storage": [
					{
						"astId": 8,
						"contract": "contracts/04day/Whislist.sol:Wishlist",
						"label": "owner",
						"offset": 0,
						"slot": "0",
						"type": "t_address"
					},
					{
						"astId": 12,
						"contract": "contracts/04day/Whislist.sol:Wishlist",
						"label": "wishes",
						"offset": 0,
						"slot": "1",
						"type": "t_array(t_struct(WishItem)6_storage)dyn_storage"
					}
				],
				"types": {
					"t_address": {
						"encoding": "inplace",
						"label": "address",
						"numberOfBytes": "20"
					},
					"t_array(t_struct(WishItem)6_storage)dyn_storage": {
						"base": "t_struct(WishItem)6_storage",
						"encoding": "dynamic_array",
						"label": "struct Wishlist.WishItem[]",
						"numberOfBytes": "32"
					},
					"t_bool": {
						"encoding": "inplace",
						"label": "bool",
						"numberOfBytes": "1"
					},
					"t_string_storage": {
						"encoding": "bytes",
						"label": "string",
						"numberOfBytes": "32"
					},
					"t_struct(WishItem)6_storage": {
						"encoding": "inplace",
						"label": "struct Wishlist.WishItem",
						"members": [
							{
								"astId": 3,
								"contract": "contracts/04day/Whislist.sol:Wishlist",
								"label": "name",
								"offset": 0,
								"slot": "0",
								"type": "t_string_storage"
							},
							{
								"astId": 5,
								"contract": "contracts/04day/Whislist.sol:Wishlist",
								"label": "isFullfilled",
								"offset": 0,
								"slot": "1",
								"type": "t_bool"
							}
						],
						"numberOfBytes": "64"
					}
				}
			},
			"userdoc": {
				"kind": "user",
				"methods": {},
				"version": 1
			}
		}
	}
}